{
  "contractName": "Balance",
  "abi": [
    {
      "constant": true,
      "inputs": [],
      "name": "name",
      "outputs": [
        {
          "name": "",
          "type": "string"
        }
      ],
      "payable": false,
      "stateMutability": "view",
      "type": "function"
    },
    {
      "constant": true,
      "inputs": [],
      "name": "totalSupply",
      "outputs": [
        {
          "name": "",
          "type": "uint256"
        }
      ],
      "payable": false,
      "stateMutability": "view",
      "type": "function"
    },
    {
      "constant": true,
      "inputs": [],
      "name": "decimals",
      "outputs": [
        {
          "name": "",
          "type": "uint8"
        }
      ],
      "payable": false,
      "stateMutability": "view",
      "type": "function"
    },
    {
      "constant": true,
      "inputs": [
        {
          "name": "",
          "type": "address"
        }
      ],
      "name": "balanceOf",
      "outputs": [
        {
          "name": "amount",
          "type": "uint256"
        },
        {
          "name": "blockAmount",
          "type": "uint256"
        },
        {
          "name": "owner",
          "type": "address"
        }
      ],
      "payable": false,
      "stateMutability": "view",
      "type": "function"
    },
    {
      "constant": true,
      "inputs": [],
      "name": "symbol",
      "outputs": [
        {
          "name": "",
          "type": "string"
        }
      ],
      "payable": false,
      "stateMutability": "view",
      "type": "function"
    },
    {
      "inputs": [
        {
          "name": "initialSupply",
          "type": "uint256"
        },
        {
          "name": "tokenName",
          "type": "string"
        },
        {
          "name": "tokenSymbol",
          "type": "string"
        }
      ],
      "payable": false,
      "stateMutability": "nonpayable",
      "type": "constructor"
    },
    {
      "anonymous": false,
      "inputs": [
        {
          "indexed": true,
          "name": "from",
          "type": "address"
        },
        {
          "indexed": true,
          "name": "to",
          "type": "address"
        },
        {
          "indexed": false,
          "name": "value",
          "type": "uint256"
        }
      ],
      "name": "Transfer",
      "type": "event"
    },
    {
      "anonymous": false,
      "inputs": [
        {
          "indexed": false,
          "name": "amount",
          "type": "uint256"
        },
        {
          "indexed": false,
          "name": "blockAmount",
          "type": "uint256"
        },
        {
          "indexed": false,
          "name": "owner",
          "type": "address"
        }
      ],
      "name": "BlockTokens",
      "type": "event"
    },
    {
      "anonymous": false,
      "inputs": [
        {
          "indexed": false,
          "name": "amount",
          "type": "uint256"
        },
        {
          "indexed": false,
          "name": "blockAmount",
          "type": "uint256"
        },
        {
          "indexed": false,
          "name": "owner",
          "type": "address"
        }
      ],
      "name": "UnblockTokens",
      "type": "event"
    },
    {
      "anonymous": false,
      "inputs": [
        {
          "indexed": true,
          "name": "from",
          "type": "address"
        },
        {
          "indexed": false,
          "name": "value",
          "type": "uint256"
        }
      ],
      "name": "Burn",
      "type": "event"
    },
    {
      "constant": false,
      "inputs": [
        {
          "name": "_from",
          "type": "address"
        },
        {
          "name": "_to",
          "type": "address"
        },
        {
          "name": "_value",
          "type": "uint256"
        }
      ],
      "name": "transferTokens",
      "outputs": [],
      "payable": false,
      "stateMutability": "nonpayable",
      "type": "function"
    },
    {
      "constant": false,
      "inputs": [
        {
          "name": "_user",
          "type": "address"
        },
        {
          "name": "_value",
          "type": "uint256"
        }
      ],
      "name": "blockTokens",
      "outputs": [],
      "payable": false,
      "stateMutability": "nonpayable",
      "type": "function"
    },
    {
      "constant": false,
      "inputs": [
        {
          "name": "_user",
          "type": "address"
        },
        {
          "name": "_value",
          "type": "uint256"
        }
      ],
      "name": "unblockTokens",
      "outputs": [],
      "payable": false,
      "stateMutability": "nonpayable",
      "type": "function"
    },
    {
      "constant": false,
      "inputs": [
        {
          "name": "_value",
          "type": "uint256"
        }
      ],
      "name": "burn",
      "outputs": [
        {
          "name": "success",
          "type": "bool"
        }
      ],
      "payable": false,
      "stateMutability": "nonpayable",
      "type": "function"
    }
  ],
  "bytecode": "0x608060405260028060006101000a81548160ff021916908360ff16021790555034801561002b57600080fd5b50604051610d25380380610d25833981018060405281019080805190602001909291908051820192919060200180518201929190505050600260009054906101000a900460ff1660ff16600a0a83026003819055506060604051908101604052806003548152602001600081526020013373ffffffffffffffffffffffffffffffffffffffff16815250600460003373ffffffffffffffffffffffffffffffffffffffff1673ffffffffffffffffffffffffffffffffffffffff168152602001908152602001600020600082015181600001556020820151816001015560408201518160020160006101000a81548173ffffffffffffffffffffffffffffffffffffffff021916908373ffffffffffffffffffffffffffffffffffffffff1602179055509050508160009080519060200190610168929190610188565b50806001908051906020019061017f929190610188565b5050505061022d565b828054600181600116156101000203166002900490600052602060002090601f016020900481019282601f106101c957805160ff19168380011785556101f7565b828001600101855582156101f7579182015b828111156101f65782518255916020019190600101906101db565b5b5090506102049190610208565b5090565b61022a91905b8082111561022657600081600090555060010161020e565b5090565b90565b610ae98061023c6000396000f300608060405260043610610099576000357c0100000000000000000000000000000000000000000000000000000000900463ffffffff16806306fdde031461009e57806318160ddd1461012e578063313ce567146101595780633c1a88d71461018a57806342966c68146101d757806370a082311461021c57806395d89b41146102ad5780639b2675401461033d578063a64b6e5f1461038a575b600080fd5b3480156100aa57600080fd5b506100b36103f7565b6040518080602001828103825283818151815260200191508051906020019080838360005b838110156100f35780820151818401526020810190506100d8565b50505050905090810190601f1680156101205780820380516001836020036101000a031916815260200191505b509250505060405180910390f35b34801561013a57600080fd5b50610143610495565b6040518082815260200191505060405180910390f35b34801561016557600080fd5b5061016e61049b565b604051808260ff1660ff16815260200191505060405180910390f35b34801561019657600080fd5b506101d5600480360381019080803573ffffffffffffffffffffffffffffffffffffffff169060200190929190803590602001909291905050506104ae565b005b3480156101e357600080fd5b506102026004803603810190808035906020019092919050505061060c565b604051808215151515815260200191505060405180910390f35b34801561022857600080fd5b5061025d600480360381019080803573ffffffffffffffffffffffffffffffffffffffff1690602001909291905050506106dd565b604051808481526020018381526020018273ffffffffffffffffffffffffffffffffffffffff1673ffffffffffffffffffffffffffffffffffffffff168152602001935050505060405180910390f35b3480156102b957600080fd5b506102c2610727565b6040518080602001828103825283818151815260200191508051906020019080838360005b838110156103025780820151818401526020810190506102e7565b50505050905090810190601f16801561032f5780820380516001836020036101000a031916815260200191505b509250505060405180910390f35b34801561034957600080fd5b50610388600480360381019080803573ffffffffffffffffffffffffffffffffffffffff169060200190929190803590602001909291905050506107c5565b005b34801561039657600080fd5b506103f5600480360381019080803573ffffffffffffffffffffffffffffffffffffffff169060200190929190803573ffffffffffffffffffffffffffffffffffffffff16906020019092919080359060200190929190505050610923565b005b60008054600181600116156101000203166002900480601f01602080910402602001604051908101604052809291908181526020018280546001816001161561010002031660029004801561048d5780601f106104625761010080835404028352916020019161048d565b820191906000526020600020905b81548152906001019060200180831161047057829003601f168201915b505050505081565b60035481565b600260009054906101000a900460ff1681565b60008060008473ffffffffffffffffffffffffffffffffffffffff16141515156104d757600080fd5b600460008573ffffffffffffffffffffffffffffffffffffffff1673ffffffffffffffffffffffffffffffffffffffff16815260200190815260200160002091508282600001541015151561052b57600080fd5b816000015490508282600001600082825403925050819055508282600101600082825401925050819055507fe6d7d4af5f9a5ec985842192dd882d7b84ed34443b77de79b632c4c626d3ea55826000015483600101548460020160009054906101000a900473ffffffffffffffffffffffffffffffffffffffff16604051808481526020018381526020018273ffffffffffffffffffffffffffffffffffffffff1673ffffffffffffffffffffffffffffffffffffffff168152602001935050505060405180910390a1808383600001540114151561060657fe5b50505050565b600080600460003373ffffffffffffffffffffffffffffffffffffffff1673ffffffffffffffffffffffffffffffffffffffff16815260200190815260200160002090508281600001541015151561066357600080fd5b828160000160008282540392505081905550826003600082825403925050819055503373ffffffffffffffffffffffffffffffffffffffff167fcc16f5dbb4873280815c1ee09dbd06736cffcc184412cf7a71a0fdb75d397ca5846040518082815260200191505060405180910390a26001915050919050565b60046020528060005260406000206000915090508060000154908060010154908060020160009054906101000a900473ffffffffffffffffffffffffffffffffffffffff16905083565b60018054600181600116156101000203166002900480601f0160208091040260200160405190810160405280929190818152602001828054600181600116156101000203166002900480156107bd5780601f10610792576101008083540402835291602001916107bd565b820191906000526020600020905b8154815290600101906020018083116107a057829003601f168201915b505050505081565b60008060008473ffffffffffffffffffffffffffffffffffffffff16141515156107ee57600080fd5b600460008573ffffffffffffffffffffffffffffffffffffffff1673ffffffffffffffffffffffffffffffffffffffff16815260200190815260200160002091508282600001541015151561084257600080fd5b816000015490508282600101600082825403925050819055508282600001600082825401925050819055507f04da2c6b9b4279f176117b4ddefd9952278563b89b1ae17b8f24f2737e31b471826000015483600101548460020160009054906101000a900473ffffffffffffffffffffffffffffffffffffffff16604051808481526020018381526020018273ffffffffffffffffffffffffffffffffffffffff1673ffffffffffffffffffffffffffffffffffffffff168152602001935050505060405180910390a1808383600001540314151561091d57fe5b50505050565b61092e838383610933565b505050565b6000806000808573ffffffffffffffffffffffffffffffffffffffff161415151561095d57600080fd5b600460008773ffffffffffffffffffffffffffffffffffffffff1673ffffffffffffffffffffffffffffffffffffffff1681526020019081526020016000209250838360000154101515156109b157600080fd5b600460008673ffffffffffffffffffffffffffffffffffffffff1673ffffffffffffffffffffffffffffffffffffffff1681526020019081526020016000209150816000015484836000015401111515610a0a57600080fd5b816000015483600001540190508383600001600082825403925050819055508382600001600082825401925050819055508473ffffffffffffffffffffffffffffffffffffffff168673ffffffffffffffffffffffffffffffffffffffff167fddf252ad1be2c89b69c2b068fc378daa952ba7f163c4a11628f55a4df523b3ef866040518082815260200191505060405180910390a3808260000154846000015401141515610ab557fe5b5050505050505600a165627a7a72305820f031e02e82736b2a787d434f28a4878cabb5472bf63c5474a71b482bf7febb9e0029",
  "source": "pragma solidity ^0.4.24;\n\ncontract Balance {\n    // Public variables of the token\n    string public name;\n    string public symbol;\n    uint8 public decimals = 2;\n    // 18 decimals is the strongly suggested default, avoid changing it\n    uint256 public totalSupply;\n\n    struct Wallet {\n        uint256 amount;\n        uint256 blockAmount;\n        address owner;\n    }\n\n    // This creates an array with all balances\n    mapping (address => Wallet) public balanceOf;\n\n    // This generates a public event on the blockchain that will notify clients\n    event Transfer(address indexed from, address indexed to, uint256 value);\n\n    event BlockTokens(uint256 amount, uint256 blockAmount, address owner);\n    event UnblockTokens(uint256 amount, uint256 blockAmount, address owner);\n\n    // This notifies clients about the amount burnt\n    event Burn(address indexed from, uint256 value);\n\n    /**\n     * Constrctor function\n     *\n     * Initializes contract with initial supply tokens to the creator of the contract\n     */\n    constructor(uint256 initialSupply, string tokenName, string tokenSymbol) public {\n        totalSupply = initialSupply * 10 ** uint256(decimals);       // Update total supply with the decimal amount\n        balanceOf[msg.sender] = Wallet(totalSupply, uint(0), msg.sender); // Give the creator all initial tokens\n        name = tokenName;                                           // Set the name for display purposes\n        symbol = tokenSymbol;                                       // Set the symbol for display purposes\n    }\n\n    /**\n     * Internal transfer, only can be called by this contract\n     */\n    function _transferTokens(address _from, address _to, uint _value) internal {\n        // Prevent transfer to 0x0 address. Use burn() instead\n        require(_to != 0x0);\n        // Check if the sender has enough\n        Wallet storage walletFrom = balanceOf[_from];\n        require(walletFrom.amount >= _value);\n        // Check for overflows\n        Wallet storage walletTo = balanceOf[_to];\n        require(walletTo.amount + _value > walletTo.amount);\n        // Save this for an assertion in the future\n        uint previousBalances = walletFrom.amount + walletTo.amount;\n        // Subtract from the sender\n        walletFrom.amount -= _value;\n        // Add the same to the recipient\n        walletTo.amount += _value;\n        emit Transfer(_from, _to, _value);\n        // Asserts are used to use static analysis to find bugs in your code. They should never fail\n        assert(walletFrom.amount + walletTo.amount == previousBalances);\n    }\n\n    /**\n     * Transfer tokens\n     *\n     * Send `_value` tokens to `_to` from your account\n     *\n     * @param _to The address of the recipient\n     * @param _value the amount to send\n     */\n    function transferTokens(address _from, address _to, uint256 _value) public {\n        _transferTokens(_from, _to, _value);\n    }\n\n    /**\n     * Block tokens\n     *\n     * Send `_value` tokens to `_to` from your account\n     *\n     * @param _user The address of the recipient\n     * @param _value the amount to block\n     */\n    function blockTokens(address _user, uint256 _value) public {\n        // Prevent transfer to 0x0 address. Use burn() instead\n        require(_user != 0x0);\n        // Check if the sender has enough\n        Wallet storage wallet = balanceOf[_user];\n        require(wallet.amount >= _value);\n        // Save this for an assertion in the future\n        uint previousBalances = wallet.amount;\n        // Subtract from the active balance\n        wallet.amount -= _value;\n        // Add block amount into the block balance\n        wallet.blockAmount += _value;\n        emit BlockTokens(wallet.amount, wallet.blockAmount, wallet.owner);\n        assert(wallet.amount + _value == previousBalances);\n    }\n\n    /**\n     * Unblock tokens\n     *\n     * Unblock `_value` tokens to `_user` from your account\n     *\n     * @param _user The address of the recipient\n     * @param _value the amount to block\n     */\n    function unblockTokens(address _user, uint256 _value) public {\n        // Prevent transfer to 0x0 address. Use burn() instead\n        require(_user != 0x0);\n        // Check if the sender has enough\n        Wallet storage wallet = balanceOf[_user];\n        require(wallet.amount >= _value);\n        // Save this for an assertion in the future\n        uint previousBalances = wallet.amount;\n        // Subtract from the active balance\n        wallet.blockAmount -= _value;\n        // Add block amount into the block balance\n        wallet.amount += _value;\n        emit UnblockTokens(wallet.amount, wallet.blockAmount, wallet.owner);\n        assert(wallet.amount - _value == previousBalances);\n    }\n\n    /**\n     * Destroy tokens\n     *\n     * Remove `_value` tokens from the system irreversibly\n     *\n     * @param _value the amount of money to burn\n     */\n    function burn(uint256 _value) public returns (bool success) {\n        Wallet storage wallet = balanceOf[msg.sender];\n        require(wallet.amount >= _value);   // Check if the sender has enough\n        wallet.amount -= _value;            // Subtract from the sender\n        totalSupply -= _value;                      // Updates totalSupply\n        emit Burn(msg.sender, _value);\n        return true;\n    }\n}\n",
  "sourcePath": "/Users/giga/projects/bxbet-backend/contracts/balance.sol",
  "compiler": {
    "name": "solc",
    "version": "0.4.24+commit.e67f0147.Emscripten.clang"
  },
  "schemaVersion": "2.0.0",
  "updatedAt": "2018-07-16T09:25:11.092Z"
}