{
  "contractName": "Betting",
  "abi": [
    {
      "constant": true,
      "inputs": [],
      "name": "name",
      "outputs": [
        {
          "name": "",
          "type": "string"
        }
      ],
      "payable": false,
      "stateMutability": "view",
      "type": "function"
    },
    {
      "constant": true,
      "inputs": [],
      "name": "totalSupply",
      "outputs": [
        {
          "name": "",
          "type": "uint256"
        }
      ],
      "payable": false,
      "stateMutability": "view",
      "type": "function"
    },
    {
      "constant": true,
      "inputs": [],
      "name": "totalGames",
      "outputs": [
        {
          "name": "",
          "type": "uint256"
        }
      ],
      "payable": false,
      "stateMutability": "view",
      "type": "function"
    },
    {
      "constant": true,
      "inputs": [],
      "name": "decimals",
      "outputs": [
        {
          "name": "",
          "type": "uint8"
        }
      ],
      "payable": false,
      "stateMutability": "view",
      "type": "function"
    },
    {
      "constant": false,
      "inputs": [
        {
          "name": "_user",
          "type": "address"
        },
        {
          "name": "_value",
          "type": "uint256"
        }
      ],
      "name": "blockTokens",
      "outputs": [],
      "payable": false,
      "stateMutability": "nonpayable",
      "type": "function"
    },
    {
      "constant": false,
      "inputs": [
        {
          "name": "_value",
          "type": "uint256"
        }
      ],
      "name": "burn",
      "outputs": [
        {
          "name": "success",
          "type": "bool"
        }
      ],
      "payable": false,
      "stateMutability": "nonpayable",
      "type": "function"
    },
    {
      "constant": true,
      "inputs": [
        {
          "name": "",
          "type": "address"
        }
      ],
      "name": "balanceOf",
      "outputs": [
        {
          "name": "amount",
          "type": "uint256"
        },
        {
          "name": "blockAmount",
          "type": "uint256"
        },
        {
          "name": "owner",
          "type": "address"
        }
      ],
      "payable": false,
      "stateMutability": "view",
      "type": "function"
    },
    {
      "constant": true,
      "inputs": [],
      "name": "owner",
      "outputs": [
        {
          "name": "",
          "type": "address"
        }
      ],
      "payable": false,
      "stateMutability": "view",
      "type": "function"
    },
    {
      "constant": true,
      "inputs": [],
      "name": "symbol",
      "outputs": [
        {
          "name": "",
          "type": "string"
        }
      ],
      "payable": false,
      "stateMutability": "view",
      "type": "function"
    },
    {
      "constant": false,
      "inputs": [
        {
          "name": "_user",
          "type": "address"
        },
        {
          "name": "_value",
          "type": "uint256"
        }
      ],
      "name": "unblockTokens",
      "outputs": [],
      "payable": false,
      "stateMutability": "nonpayable",
      "type": "function"
    },
    {
      "constant": false,
      "inputs": [
        {
          "name": "_from",
          "type": "address"
        },
        {
          "name": "_to",
          "type": "address"
        },
        {
          "name": "_value",
          "type": "uint256"
        }
      ],
      "name": "transferTokens",
      "outputs": [],
      "payable": false,
      "stateMutability": "nonpayable",
      "type": "function"
    },
    {
      "constant": false,
      "inputs": [
        {
          "name": "newOwner",
          "type": "address"
        }
      ],
      "name": "transferOwnership",
      "outputs": [],
      "payable": false,
      "stateMutability": "nonpayable",
      "type": "function"
    },
    {
      "inputs": [
        {
          "name": "initialSupply",
          "type": "uint256"
        },
        {
          "name": "tokenName",
          "type": "string"
        },
        {
          "name": "tokenSymbol",
          "type": "string"
        }
      ],
      "payable": false,
      "stateMutability": "nonpayable",
      "type": "constructor"
    },
    {
      "anonymous": false,
      "inputs": [
        {
          "indexed": false,
          "name": "gameId",
          "type": "uint256"
        },
        {
          "indexed": false,
          "name": "homeTeam",
          "type": "string"
        },
        {
          "indexed": false,
          "name": "awayTeam",
          "type": "string"
        },
        {
          "indexed": false,
          "name": "category",
          "type": "string"
        },
        {
          "indexed": false,
          "name": "startDate",
          "type": "uint256"
        },
        {
          "indexed": false,
          "name": "endDate",
          "type": "uint256"
        },
        {
          "indexed": false,
          "name": "status",
          "type": "uint256"
        },
        {
          "indexed": false,
          "name": "owner",
          "type": "address"
        },
        {
          "indexed": false,
          "name": "totalOrders",
          "type": "uint256"
        }
      ],
      "name": "GameEvent",
      "type": "event"
    },
    {
      "anonymous": false,
      "inputs": [
        {
          "indexed": false,
          "name": "orderId",
          "type": "uint256"
        },
        {
          "indexed": false,
          "name": "player",
          "type": "address"
        },
        {
          "indexed": false,
          "name": "gameId",
          "type": "uint256"
        },
        {
          "indexed": false,
          "name": "orderType",
          "type": "uint8"
        },
        {
          "indexed": false,
          "name": "amount",
          "type": "uint256"
        },
        {
          "indexed": false,
          "name": "odd",
          "type": "uint256"
        },
        {
          "indexed": false,
          "name": "outcome",
          "type": "uint256"
        },
        {
          "indexed": false,
          "name": "status",
          "type": "uint256"
        },
        {
          "indexed": false,
          "name": "matchedAmount",
          "type": "uint256"
        },
        {
          "indexed": false,
          "name": "totalMatched",
          "type": "uint256"
        }
      ],
      "name": "OrderEvent",
      "type": "event"
    },
    {
      "anonymous": false,
      "inputs": [
        {
          "indexed": true,
          "name": "from",
          "type": "address"
        },
        {
          "indexed": true,
          "name": "to",
          "type": "address"
        },
        {
          "indexed": false,
          "name": "value",
          "type": "uint256"
        }
      ],
      "name": "Transfer",
      "type": "event"
    },
    {
      "anonymous": false,
      "inputs": [
        {
          "indexed": false,
          "name": "amount",
          "type": "uint256"
        },
        {
          "indexed": false,
          "name": "blockAmount",
          "type": "uint256"
        },
        {
          "indexed": false,
          "name": "owner",
          "type": "address"
        }
      ],
      "name": "BlockTokens",
      "type": "event"
    },
    {
      "anonymous": false,
      "inputs": [
        {
          "indexed": false,
          "name": "amount",
          "type": "uint256"
        },
        {
          "indexed": false,
          "name": "blockAmount",
          "type": "uint256"
        },
        {
          "indexed": false,
          "name": "owner",
          "type": "address"
        }
      ],
      "name": "UnblockTokens",
      "type": "event"
    },
    {
      "anonymous": false,
      "inputs": [
        {
          "indexed": true,
          "name": "from",
          "type": "address"
        },
        {
          "indexed": false,
          "name": "value",
          "type": "uint256"
        }
      ],
      "name": "Burn",
      "type": "event"
    },
    {
      "constant": false,
      "inputs": [
        {
          "name": "_homeTeam",
          "type": "string"
        },
        {
          "name": "_awayTeam",
          "type": "string"
        },
        {
          "name": "_category",
          "type": "string"
        },
        {
          "name": "_startDate",
          "type": "uint256"
        },
        {
          "name": "_endDate",
          "type": "uint256"
        },
        {
          "name": "status",
          "type": "uint256"
        },
        {
          "name": "owner",
          "type": "address"
        }
      ],
      "name": "addGame",
      "outputs": [
        {
          "name": "",
          "type": "uint256"
        }
      ],
      "payable": false,
      "stateMutability": "nonpayable",
      "type": "function"
    },
    {
      "constant": false,
      "inputs": [
        {
          "name": "_gameId",
          "type": "uint256"
        },
        {
          "name": "outcome",
          "type": "uint256"
        }
      ],
      "name": "finishGame",
      "outputs": [],
      "payable": false,
      "stateMutability": "nonpayable",
      "type": "function"
    },
    {
      "constant": true,
      "inputs": [
        {
          "name": "_gameId",
          "type": "uint256"
        }
      ],
      "name": "getGame",
      "outputs": [
        {
          "name": "",
          "type": "uint256"
        },
        {
          "name": "",
          "type": "string"
        },
        {
          "name": "",
          "type": "string"
        },
        {
          "name": "",
          "type": "string"
        },
        {
          "name": "",
          "type": "uint256"
        },
        {
          "name": "",
          "type": "uint256"
        },
        {
          "name": "",
          "type": "uint8"
        },
        {
          "name": "",
          "type": "address"
        },
        {
          "name": "",
          "type": "uint256"
        }
      ],
      "payable": false,
      "stateMutability": "view",
      "type": "function"
    },
    {
      "constant": true,
      "inputs": [
        {
          "name": "_gameId",
          "type": "uint256"
        },
        {
          "name": "_orderId",
          "type": "uint256"
        }
      ],
      "name": "getOrderById",
      "outputs": [
        {
          "name": "",
          "type": "uint256"
        },
        {
          "name": "",
          "type": "address"
        },
        {
          "name": "",
          "type": "uint256"
        },
        {
          "name": "",
          "type": "uint8"
        },
        {
          "name": "",
          "type": "uint256"
        },
        {
          "name": "",
          "type": "uint256"
        },
        {
          "name": "",
          "type": "uint8"
        },
        {
          "name": "",
          "type": "uint8"
        },
        {
          "name": "",
          "type": "uint256"
        }
      ],
      "payable": false,
      "stateMutability": "view",
      "type": "function"
    },
    {
      "constant": false,
      "inputs": [
        {
          "name": "_gameId",
          "type": "uint256"
        },
        {
          "name": "_orderType",
          "type": "uint256"
        },
        {
          "name": "_amount",
          "type": "uint256"
        },
        {
          "name": "_odd",
          "type": "uint256"
        },
        {
          "name": "_outcome",
          "type": "uint256"
        },
        {
          "name": "_player",
          "type": "address"
        }
      ],
      "name": "placeOrder",
      "outputs": [
        {
          "name": "",
          "type": "uint256"
        }
      ],
      "payable": true,
      "stateMutability": "payable",
      "type": "function"
    },
    {
      "constant": false,
      "inputs": [
        {
          "name": "_amount",
          "type": "uint256"
        },
        {
          "name": "_toUser",
          "type": "address"
        }
      ],
      "name": "giveFreeTokens",
      "outputs": [
        {
          "name": "",
          "type": "bool"
        }
      ],
      "payable": false,
      "stateMutability": "nonpayable",
      "type": "function"
    },
    {
      "constant": true,
      "inputs": [],
      "name": "getBalance",
      "outputs": [
        {
          "name": "",
          "type": "uint256"
        },
        {
          "name": "",
          "type": "uint256"
        },
        {
          "name": "",
          "type": "address"
        }
      ],
      "payable": false,
      "stateMutability": "view",
      "type": "function"
    }
  ],
  "bytecode": "0x60806040526002600360006101000a81548160ff021916908360ff1602179055503480156200002d57600080fd5b5060405162003b8438038062003b84833981018060405281019080805190602001909291908051820192919060200180518201929190505050828282336000806101000a81548173ffffffffffffffffffffffffffffffffffffffff021916908373ffffffffffffffffffffffffffffffffffffffff160217905550600360009054906101000a900460ff1660ff16600a0a83026004819055506060604051908101604052806004548152602001600081526020013373ffffffffffffffffffffffffffffffffffffffff16815250600560003373ffffffffffffffffffffffffffffffffffffffff1673ffffffffffffffffffffffffffffffffffffffff168152602001908152602001600020600082015181600001556020820151816001015560408201518160020160006101000a81548173ffffffffffffffffffffffffffffffffffffffff021916908373ffffffffffffffffffffffffffffffffffffffff1602179055509050508160019080519060200190620001b1929190620001df565b508060029080519060200190620001ca929190620001df565b5050505060006007819055505050506200028e565b828054600181600116156101000203166002900490600052602060002090601f016020900481019282601f106200022257805160ff191683800117855562000253565b8280016001018555821562000253579182015b828111156200025257825182559160200191906001019062000235565b5b50905062000262919062000266565b5090565b6200028b91905b80821115620002875760008160009055506001016200026d565b5090565b90565b6138e6806200029e6000396000f300608060405260043610610107576000357c0100000000000000000000000000000000000000000000000000000000900463ffffffff16806306fdde031461010c57806312065fe01461019c57806318160ddd146102015780632c4e591b1461022c578063313ce56714610257578063371d5c64146102885780633c1a88d71461030457806342966c681461035157806370a08231146103965780638da5cb5b1461042757806395d89b411461047e5780639b2675401461050e578063a2f77bcc1461055b578063a64b6e5f1461073d578063c46ab960146107aa578063d5723bf714610883578063f1c21bde146108ba578063f2fde38b1461091f578063f91e642f14610962575b600080fd5b34801561011857600080fd5b50610121610aa9565b6040518080602001828103825283818151815260200191508051906020019080838360005b83811015610161578082015181840152602081019050610146565b50505050905090810190601f16801561018e5780820380516001836020036101000a031916815260200191505b509250505060405180910390f35b3480156101a857600080fd5b506101b1610b47565b604051808481526020018381526020018273ffffffffffffffffffffffffffffffffffffffff1673ffffffffffffffffffffffffffffffffffffffff168152602001935050505060405180910390f35b34801561020d57600080fd5b50610216610c26565b6040518082815260200191505060405180910390f35b34801561023857600080fd5b50610241610c2c565b6040518082815260200191505060405180910390f35b34801561026357600080fd5b5061026c610c32565b604051808260ff1660ff16815260200191505060405180910390f35b6102ee6004803603810190808035906020019092919080359060200190929190803590602001909291908035906020019092919080359060200190929190803573ffffffffffffffffffffffffffffffffffffffff169060200190929190505050610c45565b6040518082815260200191505060405180910390f35b34801561031057600080fd5b5061034f600480360381019080803573ffffffffffffffffffffffffffffffffffffffff16906020019092919080359060200190929190505050610eae565b005b34801561035d57600080fd5b5061037c6004803603810190808035906020019092919050505061100c565b604051808215151515815260200191505060405180910390f35b3480156103a257600080fd5b506103d7600480360381019080803573ffffffffffffffffffffffffffffffffffffffff1690602001909291905050506110dd565b604051808481526020018381526020018273ffffffffffffffffffffffffffffffffffffffff1673ffffffffffffffffffffffffffffffffffffffff168152602001935050505060405180910390f35b34801561043357600080fd5b5061043c611127565b604051808273ffffffffffffffffffffffffffffffffffffffff1673ffffffffffffffffffffffffffffffffffffffff16815260200191505060405180910390f35b34801561048a57600080fd5b5061049361114c565b6040518080602001828103825283818151815260200191508051906020019080838360005b838110156104d35780820151818401526020810190506104b8565b50505050905090810190601f1680156105005780820380516001836020036101000a031916815260200191505b509250505060405180910390f35b34801561051a57600080fd5b50610559600480360381019080803573ffffffffffffffffffffffffffffffffffffffff169060200190929190803590602001909291905050506111ea565b005b34801561056757600080fd5b5061058660048036038101908080359060200190929190505050611348565b604051808a81526020018060200180602001806020018981526020018881526020018760038111156105b457fe5b60ff1681526020018673ffffffffffffffffffffffffffffffffffffffff1673ffffffffffffffffffffffffffffffffffffffff16815260200185815260200184810384528c818151815260200191508051906020019080838360005b8381101561062c578082015181840152602081019050610611565b50505050905090810190601f1680156106595780820380516001836020036101000a031916815260200191505b5084810383528b818151815260200191508051906020019080838360005b83811015610692578082015181840152602081019050610677565b50505050905090810190601f1680156106bf5780820380516001836020036101000a031916815260200191505b5084810382528a818151815260200191508051906020019080838360005b838110156106f85780820151818401526020810190506106dd565b50505050905090810190601f1680156107255780820380516001836020036101000a031916815260200191505b509c5050505050505050505050505060405180910390f35b34801561074957600080fd5b506107a8600480360381019080803573ffffffffffffffffffffffffffffffffffffffff169060200190929190803573ffffffffffffffffffffffffffffffffffffffff16906020019092919080359060200190929190505050611669565b005b3480156107b657600080fd5b506107df6004803603810190808035906020019092919080359060200190929190505050611679565b604051808a81526020018973ffffffffffffffffffffffffffffffffffffffff1673ffffffffffffffffffffffffffffffffffffffff16815260200188815260200187600181111561082d57fe5b60ff16815260200186815260200185815260200184600281111561084d57fe5b60ff16815260200183600481111561086157fe5b60ff168152602001828152602001995050505050505050505060405180910390f35b34801561088f57600080fd5b506108b8600480360381019080803590602001909291908035906020019092919050505061182c565b005b3480156108c657600080fd5b5061090560048036038101908080359060200190929190803573ffffffffffffffffffffffffffffffffffffffff16906020019092919050505061261d565b604051808215151515815260200191505060405180910390f35b34801561092b57600080fd5b50610960600480360381019080803573ffffffffffffffffffffffffffffffffffffffff1690602001909291905050506127a9565b005b34801561096e57600080fd5b50610a93600480360381019080803590602001908201803590602001908080601f0160208091040260200160405190810160405280939291908181526020018383808284378201915050505050509192919290803590602001908201803590602001908080601f0160208091040260200160405190810160405280939291908181526020018383808284378201915050505050509192919290803590602001908201803590602001908080601f0160208091040260200160405190810160405280939291908181526020018383808284378201915050505050509192919290803590602001909291908035906020019092919080359060200190929190803573ffffffffffffffffffffffffffffffffffffffff169060200190929190505050612847565b6040518082815260200191505060405180910390f35b60018054600181600116156101000203166002900480601f016020809104026020016040519081016040528092919081815260200182805460018160011615610100020316600290048015610b3f5780601f10610b1457610100808354040283529160200191610b3f565b820191906000526020600020905b815481529060010190602001808311610b2257829003601f168201915b505050505081565b6000806000610b546136e4565b600560003373ffffffffffffffffffffffffffffffffffffffff1673ffffffffffffffffffffffffffffffffffffffff1681526020019081526020016000206060604051908101604052908160008201548152602001600182015481526020016002820160009054906101000a900473ffffffffffffffffffffffffffffffffffffffff1673ffffffffffffffffffffffffffffffffffffffff1673ffffffffffffffffffffffffffffffffffffffff1681525050905080600001518160200151826040015193509350935050909192565b60045481565b60075481565b600360009054906101000a900460ff1681565b6000806000610c5261371c565b600088111515610c6157600080fd5b600087111515610c7057600080fd5b600660008b81526020019081526020016000209250600380811115610c9157fe5b8360060160009054906101000a900460ff166003811115610cae57fe5b141515610cba57600080fd5b82600701549150610140604051908101604052808381526020018673ffffffffffffffffffffffffffffffffffffffff1681526020018b81526020018a6001811115610d0257fe5b6001811115610d0d57fe5b8152602001898152602001888152602001876002811115610d2a57fe5b6002811115610d3557fe5b815260200160006004811115610d4757fe5b81526020016000815260200160008152509050610d6381612a09565b808360080160008481526020019081526020016000206000820151816000015560208201518160010160006101000a81548173ffffffffffffffffffffffffffffffffffffffff021916908373ffffffffffffffffffffffffffffffffffffffff1602179055506040820151816002015560608201518160030160006101000a81548160ff02191690836001811115610df857fe5b02179055506080820151816004015560a0820151816005015560c08201518160060160006101000a81548160ff02191690836002811115610e3557fe5b021790555060e08201518160060160016101000a81548160ff02191690836004811115610e5e57fe5b02179055506101008201518160070155610120820151816008015590505060018360070160008282540192505081905550610e998a83612a70565b50806000015193505050509695505050505050565b60008060008473ffffffffffffffffffffffffffffffffffffffff1614151515610ed757600080fd5b600560008573ffffffffffffffffffffffffffffffffffffffff1673ffffffffffffffffffffffffffffffffffffffff168152602001908152602001600020915082826000015410151515610f2b57600080fd5b816000015490508282600001600082825403925050819055508282600101600082825401925050819055507fe6d7d4af5f9a5ec985842192dd882d7b84ed34443b77de79b632c4c626d3ea55826000015483600101548460020160009054906101000a900473ffffffffffffffffffffffffffffffffffffffff16604051808481526020018381526020018273ffffffffffffffffffffffffffffffffffffffff1673ffffffffffffffffffffffffffffffffffffffff168152602001935050505060405180910390a1808383600001540114151561100657fe5b50505050565b600080600560003373ffffffffffffffffffffffffffffffffffffffff1673ffffffffffffffffffffffffffffffffffffffff16815260200190815260200160002090508281600001541015151561106357600080fd5b828160000160008282540392505081905550826004600082825403925050819055503373ffffffffffffffffffffffffffffffffffffffff167fcc16f5dbb4873280815c1ee09dbd06736cffcc184412cf7a71a0fdb75d397ca5846040518082815260200191505060405180910390a26001915050919050565b60056020528060005260406000206000915090508060000154908060010154908060020160009054906101000a900473ffffffffffffffffffffffffffffffffffffffff16905083565b6000809054906101000a900473ffffffffffffffffffffffffffffffffffffffff1681565b60028054600181600116156101000203166002900480601f0160208091040260200160405190810160405280929190818152602001828054600181600116156101000203166002900480156111e25780601f106111b7576101008083540402835291602001916111e2565b820191906000526020600020905b8154815290600101906020018083116111c557829003601f168201915b505050505081565b60008060008473ffffffffffffffffffffffffffffffffffffffff161415151561121357600080fd5b600560008573ffffffffffffffffffffffffffffffffffffffff1673ffffffffffffffffffffffffffffffffffffffff16815260200190815260200160002091508282600001541015151561126757600080fd5b816000015490508282600101600082825403925050819055508282600001600082825401925050819055507f04da2c6b9b4279f176117b4ddefd9952278563b89b1ae17b8f24f2737e31b471826000015483600101548460020160009054906101000a900473ffffffffffffffffffffffffffffffffffffffff16604051808481526020018381526020018273ffffffffffffffffffffffffffffffffffffffff1673ffffffffffffffffffffffffffffffffffffffff168152602001935050505060405180910390a1808383600001540314151561134257fe5b50505050565b60006060806060600080600080600061135f6137a7565b600660008c8152602001908152602001600020610120604051908101604052908160008201548152602001600182018054600181600116156101000203166002900480601f0160208091040260200160405190810160405280929190818152602001828054600181600116156101000203166002900480156114225780601f106113f757610100808354040283529160200191611422565b820191906000526020600020905b81548152906001019060200180831161140557829003601f168201915b50505050508152602001600282018054600181600116156101000203166002900480601f0160208091040260200160405190810160405280929190818152602001828054600181600116156101000203166002900480156114c45780601f10611499576101008083540402835291602001916114c4565b820191906000526020600020905b8154815290600101906020018083116114a757829003601f168201915b50505050508152602001600382018054600181600116156101000203166002900480601f0160208091040260200160405190810160405280929190818152602001828054600181600116156101000203166002900480156115665780601f1061153b57610100808354040283529160200191611566565b820191906000526020600020905b81548152906001019060200180831161154957829003601f168201915b5050505050815260200160048201548152602001600582015481526020016006820160009054906101000a900460ff1660038111156115a157fe5b60038111156115ac57fe5b81526020016006820160019054906101000a900473ffffffffffffffffffffffffffffffffffffffff1673ffffffffffffffffffffffffffffffffffffffff1673ffffffffffffffffffffffffffffffffffffffff1681526020016007820154815250509050806000015181602001518260400151836060015184608001518560a001518660c001518760e00151886101000151879750869650859550995099509950995099509950995099509950509193959799909294969850565b6116748383836130f9565b505050565b600080600080600080600080600061168f61371c565b600660008d815260200190815260200160002060080160008c81526020019081526020016000206101406040519081016040529081600082015481526020016001820160009054906101000a900473ffffffffffffffffffffffffffffffffffffffff1673ffffffffffffffffffffffffffffffffffffffff1673ffffffffffffffffffffffffffffffffffffffff168152602001600282015481526020016003820160009054906101000a900460ff16600181111561174b57fe5b600181111561175657fe5b815260200160048201548152602001600582015481526020016006820160009054906101000a900460ff16600281111561178c57fe5b600281111561179757fe5b81526020016006820160019054906101000a900460ff1660048111156117b957fe5b60048111156117c457fe5b8152602001600782015481526020016008820154815250509050806000015181602001518260400151836060015184608001518560a001518660c001518760e00151886101000151995099509950995099509950995099509950509295985092959850929598565b60008060008060008061183d61371c565b600660008a8152602001908152602001600020965060038081111561185e57fe5b8760060160009054906101000a900460ff16600381111561187b57fe5b14151561188757600080fd5b600095505b866007015486101561233b5786600801600087815260200190815260200160002094506004808111156118bb57fe5b8560060160019054906101000a900460ff1660048111156118d857fe5b14151561232e57600160048111156118ec57fe5b8560060160019054906101000a900460ff16600481111561190957fe5b141561203c57611a528760080160008881526020019081526020016000206101406040519081016040529081600082015481526020016001820160009054906101000a900473ffffffffffffffffffffffffffffffffffffffff1673ffffffffffffffffffffffffffffffffffffffff1673ffffffffffffffffffffffffffffffffffffffff168152602001600282015481526020016003820160009054906101000a900460ff1660018111156119bc57fe5b60018111156119c757fe5b815260200160048201548152602001600582015481526020016006820160009054906101000a900460ff1660028111156119fd57fe5b6002811115611a0857fe5b81526020016006820160019054906101000a900460ff166004811115611a2a57fe5b6004811115611a3557fe5b815260200160078201548152602001600882015481525050613283565b60006001811115611a5f57fe5b8560030160009054906101000a900460ff166001811115611a7c57fe5b1415611b3b57876002811115611a8e57fe5b6002811115611a9957fe5b8560060160009054906101000a900460ff166002811115611ab657fe5b1415611afb57600287600801600088815260200190815260200160002060060160016101000a81548160ff02191690836004811115611af157fe5b0217905550611b36565b600387600801600088815260200190815260200160002060060160016101000a81548160ff02191690836004811115611b3057fe5b02179055505b611bf0565b876002811115611b4757fe5b6002811115611b5257fe5b8560060160009054906101000a900460ff166002811115611b6f57fe5b1415611bb457600387600801600088815260200190815260200160002060060160016101000a81548160ff02191690836004811115611baa57fe5b0217905550611bef565b600287600801600088815260200190815260200160002060060160016101000a81548160ff02191690836004811115611be957fe5b02179055505b5b60006001811115611bfd57fe5b8560030160009054906101000a900460ff166001811115611c1a57fe5b1415611ef857600093505b8460080154841015611ef7578460090160008581526020019081526020016000206001015492508460090160008581526020019081526020016000206000015491508660080160008381526020019081526020016000206101406040519081016040529081600082015481526020016001820160009054906101000a900473ffffffffffffffffffffffffffffffffffffffff1673ffffffffffffffffffffffffffffffffffffffff1673ffffffffffffffffffffffffffffffffffffffff168152602001600282015481526020016003820160009054906101000a900460ff166001811115611d1157fe5b6001811115611d1c57fe5b815260200160048201548152602001600582015481526020016006820160009054906101000a900460ff166002811115611d5257fe5b6002811115611d5d57fe5b81526020016006820160019054906101000a900460ff166004811115611d7f57fe5b6004811115611d8a57fe5b8152602001600782015481526020016008820154815250509050611eea8760080160008881526020019081526020016000206101406040519081016040529081600082015481526020016001820160009054906101000a900473ffffffffffffffffffffffffffffffffffffffff1673ffffffffffffffffffffffffffffffffffffffff1673ffffffffffffffffffffffffffffffffffffffff168152602001600282015481526020016003820160009054906101000a900460ff166001811115611e5157fe5b6001811115611e5c57fe5b815260200160048201548152602001600582015481526020016006820160009054906101000a900460ff166002811115611e9257fe5b6002811115611e9d57fe5b81526020016006820160019054906101000a900460ff166004811115611ebf57fe5b6004811115611eca57fe5b81526020016007820154815260200160088201548152505082858b6132ea565b8580600101965050611c25565b5b61203b8760080160008881526020019081526020016000206101406040519081016040529081600082015481526020016001820160009054906101000a900473ffffffffffffffffffffffffffffffffffffffff1673ffffffffffffffffffffffffffffffffffffffff1673ffffffffffffffffffffffffffffffffffffffff168152602001600282015481526020016003820160009054906101000a900460ff166001811115611fa557fe5b6001811115611fb057fe5b815260200160048201548152602001600582015481526020016006820160009054906101000a900460ff166002811115611fe657fe5b6002811115611ff157fe5b81526020016006820160019054906101000a900460ff16600481111561201357fe5b600481111561201e57fe5b8152602001600782015481526020016008820154815250506133e3565b5b6000600481111561204957fe5b8560060160019054906101000a900460ff16600481111561206657fe5b141561232d576121af8760080160008881526020019081526020016000206101406040519081016040529081600082015481526020016001820160009054906101000a900473ffffffffffffffffffffffffffffffffffffffff1673ffffffffffffffffffffffffffffffffffffffff1673ffffffffffffffffffffffffffffffffffffffff168152602001600282015481526020016003820160009054906101000a900460ff16600181111561211957fe5b600181111561212457fe5b815260200160048201548152602001600582015481526020016006820160009054906101000a900460ff16600281111561215a57fe5b600281111561216557fe5b81526020016006820160019054906101000a900460ff16600481111561218757fe5b600481111561219257fe5b815260200160078201548152602001600882015481525050613283565b600487600801600088815260200190815260200160002060060160016101000a81548160ff021916908360048111156121e457fe5b021790555061232c8760080160008881526020019081526020016000206101406040519081016040529081600082015481526020016001820160009054906101000a900473ffffffffffffffffffffffffffffffffffffffff1673ffffffffffffffffffffffffffffffffffffffff1673ffffffffffffffffffffffffffffffffffffffff168152602001600282015481526020016003820160009054906101000a900460ff16600181111561229657fe5b60018111156122a157fe5b815260200160048201548152602001600582015481526020016006820160009054906101000a900460ff1660028111156122d757fe5b60028111156122e257fe5b81526020016006820160019054906101000a900460ff16600481111561230457fe5b600481111561230f57fe5b8152602001600782015481526020016008820154815250506133e3565b5b5b858060010196505061188c565b87600381111561234757fe5b8760060160006101000a81548160ff0219169083600381111561236657fe5b021790555061261287610120604051908101604052908160008201548152602001600182018054600181600116156101000203166002900480601f01602080910402602001604051908101604052809291908181526020018280546001816001161561010002031660029004801561241f5780601f106123f45761010080835404028352916020019161241f565b820191906000526020600020905b81548152906001019060200180831161240257829003601f168201915b50505050508152602001600282018054600181600116156101000203166002900480601f0160208091040260200160405190810160405280929190818152602001828054600181600116156101000203166002900480156124c15780601f10612496576101008083540402835291602001916124c1565b820191906000526020600020905b8154815290600101906020018083116124a457829003601f168201915b50505050508152602001600382018054600181600116156101000203166002900480601f0160208091040260200160405190810160405280929190818152602001828054600181600116156101000203166002900480156125635780601f1061253857610100808354040283529160200191612563565b820191906000526020600020905b81548152906001019060200180831161254657829003601f168201915b5050505050815260200160048201548152602001600582015481526020016006820160009054906101000a900460ff16600381111561259e57fe5b60038111156125a957fe5b81526020016006820160019054906101000a900473ffffffffffffffffffffffffffffffffffffffff1673ffffffffffffffffffffffffffffffffffffffff1673ffffffffffffffffffffffffffffffffffffffff1681526020016007820154815250506134df565b505050505050505050565b60006126276136e4565b8273ffffffffffffffffffffffffffffffffffffffff16600560008573ffffffffffffffffffffffffffffffffffffffff1673ffffffffffffffffffffffffffffffffffffffff16815260200190815260200160002060020160009054906101000a900473ffffffffffffffffffffffffffffffffffffffff1673ffffffffffffffffffffffffffffffffffffffff161415156127935760606040519081016040528060008152602001600081526020018473ffffffffffffffffffffffffffffffffffffffff16815250905080600560008573ffffffffffffffffffffffffffffffffffffffff1673ffffffffffffffffffffffffffffffffffffffff168152602001908152602001600020600082015181600001556020820151816001015560408201518160020160006101000a81548173ffffffffffffffffffffffffffffffffffffffff021916908373ffffffffffffffffffffffffffffffffffffffff1602179055509050505b61279e338486611669565b600191505092915050565b6000809054906101000a900473ffffffffffffffffffffffffffffffffffffffff1673ffffffffffffffffffffffffffffffffffffffff163373ffffffffffffffffffffffffffffffffffffffff1614151561280457600080fd5b806000806101000a81548173ffffffffffffffffffffffffffffffffffffffff021916908373ffffffffffffffffffffffffffffffffffffffff16021790555050565b6000806128526137a7565b858710151561286057600080fd5b60016007600082825401925050819055506001600754039150610120604051908101604052808381526020018b81526020018a81526020018981526020018881526020018781526020018660038111156128b657fe5b60038111156128c157fe5b81526020018573ffffffffffffffffffffffffffffffffffffffff168152602001600081525090508060066000848152602001908152602001600020600082015181600001556020820151816001019080519060200190612923929190613815565b506040820151816002019080519060200190612940929190613815565b50606082015181600301908051906020019061295d929190613815565b506080820151816004015560a0820151816005015560c08201518160060160006101000a81548160ff0219169083600381111561299657fe5b021790555060e08201518160060160016101000a81548173ffffffffffffffffffffffffffffffffffffffff021916908373ffffffffffffffffffffffffffffffffffffffff16021790555061010082015181600701559050506129f9816134df565b8192505050979650505050505050565b6000806001811115612a1757fe5b82606001516001811115612a2757fe5b1415612a4457612a3f82602001518360800151610eae565b612a6c565b60648260a00151836080015102811515612a5a57fe5b049050612a6b826020015182610eae565b5b5050565b612a7861371c565b6000806000806000806000600660008b815260200190815260200160002096508660080160008a81526020019081526020016000209550600094505b8660070154851015612e945786600801600086815260200190815260200160002093508360070154846004015403925085600701548660040154039150600082111515612b0057612e94565b8560030160009054906101000a900460ff166001811115612b1d57fe5b8460030160009054906101000a900460ff166001811115612b3a57fe5b14158015612b4f575085600501548460050154145b8015612b9257508560060160009054906101000a900460ff166002811115612b7357fe5b8460060160009054906101000a900460ff166002811115612b9057fe5b145b8015612c1257508560010160009054906101000a900473ffffffffffffffffffffffffffffffffffffffff1673ffffffffffffffffffffffffffffffffffffffff168460010160009054906101000a900473ffffffffffffffffffffffffffffffffffffffff1673ffffffffffffffffffffffffffffffffffffffff1614155b8015612c1e5750600083115b8015612c2a5750600082115b15612e875782905081831115612c3e578190505b60018460060160016101000a81548160ff02191690836004811115612c5f57fe5b0217905550808460070154018460070181905550604080519081016040528087600001548152602001828152508460090160006001815260200190815260200160002060008201518160000155602082015181600101559050506001846008015401846008018190555060018660060160016101000a81548160ff02191690836004811115612cea57fe5b02179055506040805190810160405280856000015481526020018281525086600901600088600801548152602001908152602001600020600082015181600001556020820151816001015590505080866007015401866007018190555060018660080154018660080181905550612e86846101406040519081016040529081600082015481526020016001820160009054906101000a900473ffffffffffffffffffffffffffffffffffffffff1673ffffffffffffffffffffffffffffffffffffffff1673ffffffffffffffffffffffffffffffffffffffff168152602001600282015481526020016003820160009054906101000a900460ff166001811115612df057fe5b6001811115612dfb57fe5b815260200160048201548152602001600582015481526020016006820160009054906101000a900460ff166002811115612e3157fe5b6002811115612e3c57fe5b81526020016006820160019054906101000a900460ff166004811115612e5e57fe5b6004811115612e6957fe5b8152602001600782015481526020016008820154815250506133e3565b5b8480600101955050612ab4565b612fc3866101406040519081016040529081600082015481526020016001820160009054906101000a900473ffffffffffffffffffffffffffffffffffffffff1673ffffffffffffffffffffffffffffffffffffffff1673ffffffffffffffffffffffffffffffffffffffff168152602001600282015481526020016003820160009054906101000a900460ff166001811115612f2d57fe5b6001811115612f3857fe5b815260200160048201548152602001600582015481526020016006820160009054906101000a900460ff166002811115612f6e57fe5b6002811115612f7957fe5b81526020016006820160019054906101000a900460ff166004811115612f9b57fe5b6004811115612fa657fe5b8152602001600782015481526020016008820154815250506133e3565b856101406040519081016040529081600082015481526020016001820160009054906101000a900473ffffffffffffffffffffffffffffffffffffffff1673ffffffffffffffffffffffffffffffffffffffff1673ffffffffffffffffffffffffffffffffffffffff168152602001600282015481526020016003820160009054906101000a900460ff16600181111561305957fe5b600181111561306457fe5b815260200160048201548152602001600582015481526020016006820160009054906101000a900460ff16600281111561309a57fe5b60028111156130a557fe5b81526020016006820160019054906101000a900460ff1660048111156130c757fe5b60048111156130d257fe5b81526020016007820154815260200160088201548152505097505050505050505092915050565b6000806000808573ffffffffffffffffffffffffffffffffffffffff161415151561312357600080fd5b600560008773ffffffffffffffffffffffffffffffffffffffff1673ffffffffffffffffffffffffffffffffffffffff16815260200190815260200160002092508383600001541015151561317757600080fd5b600560008673ffffffffffffffffffffffffffffffffffffffff1673ffffffffffffffffffffffffffffffffffffffff16815260200190815260200160002091508160000154848360000154011115156131d057600080fd5b816000015483600001540190508383600001600082825403925050819055508382600001600082825401925050819055508473ffffffffffffffffffffffffffffffffffffffff168673ffffffffffffffffffffffffffffffffffffffff167fddf252ad1be2c89b69c2b068fc378daa952ba7f163c4a11628f55a4df523b3ef866040518082815260200191505060405180910390a380826000015484600001540114151561327b57fe5b505050505050565b600080600181111561329157fe5b826060015160018111156132a157fe5b14156132be576132b9826020015183608001516111ea565b6132e6565b60648260a001518360800151028115156132d457fe5b0490506132e58260200151826111ea565b5b5050565b60008060008060018111156132fb57fe5b8760600151600181111561330b57fe5b141561337c578460648860a00151870281151561332457fe5b0403925083600281111561333457fe5b600281111561333f57fe5b8760c00151600281111561334f57fe5b1415613368578560200151915086602001519050613377565b86602001519150856020015190505b6133cf565b84925083600281111561338b57fe5b600281111561339657fe5b8760c0015160028111156133a657fe5b14156133bf5786602001519150856020015190506133ce565b85602001519150866020015190505b5b6133da828285611669565b50505050505050565b7f91225e628b66080f94bd45017d68a1df2d528aa987721f92c458c13da65586f4816000015182602001518360400151846060015185608001518660a001518760c00151600281111561343257fe5b8860e00151600481111561344257fe5b8961010001518a6101200151604051808b81526020018a73ffffffffffffffffffffffffffffffffffffffff1673ffffffffffffffffffffffffffffffffffffffff16815260200189815260200188600181111561349c57fe5b60ff1681526020018781526020018681526020018581526020018481526020018381526020018281526020019a505050505050505050505060405180910390a150565b7fd0a94a76258019a0888564b6d54f60b20c36602e696169f8af570f6643d4655b816000015182602001518360400151846060015185608001518660a001518760c00151600381111561352e57fe5b8860e00151896101000151604051808a81526020018060200180602001806020018981526020018881526020018781526020018673ffffffffffffffffffffffffffffffffffffffff1673ffffffffffffffffffffffffffffffffffffffff16815260200185815260200184810384528c818151815260200191508051906020019080838360005b838110156135d15780820151818401526020810190506135b6565b50505050905090810190601f1680156135fe5780820380516001836020036101000a031916815260200191505b5084810383528b818151815260200191508051906020019080838360005b8381101561363757808201518184015260208101905061361c565b50505050905090810190601f1680156136645780820380516001836020036101000a031916815260200191505b5084810382528a818151815260200191508051906020019080838360005b8381101561369d578082015181840152602081019050613682565b50505050905090810190601f1680156136ca5780820380516001836020036101000a031916815260200191505b509c5050505050505050505050505060405180910390a150565b6060604051908101604052806000815260200160008152602001600073ffffffffffffffffffffffffffffffffffffffff1681525090565b6101406040519081016040528060008152602001600073ffffffffffffffffffffffffffffffffffffffff168152602001600081526020016000600181111561376157fe5b815260200160008152602001600081526020016000600281111561378157fe5b81526020016000600481111561379357fe5b815260200160008152602001600081525090565b61012060405190810160405280600081526020016060815260200160608152602001606081526020016000815260200160008152602001600060038111156137eb57fe5b8152602001600073ffffffffffffffffffffffffffffffffffffffff168152602001600081525090565b828054600181600116156101000203166002900490600052602060002090601f016020900481019282601f1061385657805160ff1916838001178555613884565b82800160010185558215613884579182015b82811115613883578251825591602001919060010190613868565b5b5090506138919190613895565b5090565b6138b791905b808211156138b357600081600090555060010161389b565b5090565b905600a165627a7a72305820c641948bfeca046d5f005981113d2c7c690bda95079e928fc5e0daf7d3014fb60029",
  "source": "pragma solidity ^0.4.24;\n\nimport \"./owned.sol\";\nimport \"./balance.sol\";\n\n\ncontract Betting is Owned, Balance {\n    mapping(uint => Game) games;\n    enum GameStatus { FinishedDraw, FinishedOne, FinishedTwo, Open }\n    enum OrderType { Buy, Sell }\n    enum OrderStatus { Open, Matched, Win, Lose, Closed }\n    enum OrderOutcome {Draw, One, Two }\n    uint public totalGames;\n    uint80 constant NONE = uint80(0);\n\n    // We use the struct datatype to store the event information.\n    struct Game {\n        uint id;\n        string homeTeam;\n        string awayTeam;\n        string category;\n        uint startDate;\n        uint endDate;\n        GameStatus status;\n        address owner;\n        uint totalOrders;\n        mapping (uint => Order) orders;\n    }\n\n    struct OrderMatched {\n        uint matchedOrderId;\n        uint amount; // 100\n    }\n\n    struct Order {\n        uint id;\n        address player;\n        uint gameId;\n        OrderType orderType; // buy or sell\n        uint amount; // 100\n        uint odd; // 1.5\n        OrderOutcome outcome; // 1, x, 2\n        OrderStatus status;\n        uint matchedAmount; // 100\n        uint totalMatched;\n        mapping(uint => OrderMatched) matchedOrders;\n    }\n\n     /**\n     * Constrctor function\n     *\n     * Initializes contract with initial supply tokens to the creator of the contract\n     */\n    constructor (uint256 initialSupply, string tokenName, string tokenSymbol)\n        Balance(initialSupply, tokenName, tokenSymbol) public {\n            totalGames = 0;\n        }\n\n    /**\n    * Add Game Event\n    */\n    event GameEvent(uint gameId, string homeTeam, string awayTeam, string category, uint startDate,\n        uint endDate, uint status, address owner, uint totalOrders);\n\n    /**\n    * Place order event\n    */\n    event OrderEvent(uint orderId, address player, uint gameId, OrderType orderType,\n        uint amount, uint odd, uint outcome, uint status, uint matchedAmount, uint totalMatched);\n\n    /**\n    * Add Game\n    */\n    function addGame(string _homeTeam, string _awayTeam, string _category,\n        uint _startDate, uint _endDate, uint status, address owner) public returns (uint) {\n        // require (now > _startDate);\n        require(_startDate < _endDate);\n        totalGames += 1;\n        uint gameIndex = totalGames - 1;\n        Game memory game = Game(gameIndex, _homeTeam, _awayTeam, _category,\n            _startDate, _endDate, GameStatus(status), owner, 0);\n        games[gameIndex] = game;\n\n        emitGameEvent(game);\n\n        return gameIndex;\n    }\n\n    /**\n    * Finish game by gameId and result\n    */\n    function finishGame(uint _gameId, uint outcome) public {\n        Game storage game = games[_gameId];\n        require(game.status == GameStatus.Open);\n        for (uint i = 0; i < game.totalOrders; i++) {\n            Order storage order = game.orders[i];\n            if (order.status != OrderStatus.Closed) {\n                if (order.status == OrderStatus.Matched) {\n                    unblockTokensByOrder(game.orders[i]);\n                    // unblockTokensByOrder(game.orders[order.matchedOrderId]);\n                    if (order.orderType == OrderType.Buy){ //if is Buy order\n                        if (order.outcome == OrderOutcome(outcome)) {\n                           //if game's outcome equals order outcome\n                            game.orders[i].status = OrderStatus.Win;\n                            // game.orders[order.matchedOrderId].status = OrderStatus.Lose;\n                        }else{\n                           //if game's outcome does not equals order outcome\n                            game.orders[i].status = OrderStatus.Lose;\n                            // game.orders[order.matchedOrderId].status = OrderStatus.Win;\n                        }\n                    } else { // if is Sell order\n                       if (order.outcome == OrderOutcome(outcome)) {\n                            //if game's outcome equals order outcome\n                            game.orders[i].status = OrderStatus.Lose;\n                            // game.orders[order.matchedOrderId].status = OrderStatus.Win;\n                       }else{\n                           //if game's outcome does not equals order outcome\n                            game.orders[i].status = OrderStatus.Win;\n                            // game.orders[order.matchedOrderId].status = OrderStatus.Lose;\n                       }\n                    }\n\n                    if (order.orderType == OrderType.Buy){\n                      for (uint j = 0; j <  order.totalMatched; i++) {\n                         uint matchedAmount = order.matchedOrders[j].amount;\n                         uint matchedOrderId = order.matchedOrders[j].matchedOrderId;\n                         Order memory matchedOrder = game.orders[matchedOrderId];\n                         transferTokensByOrder(game.orders[i], matchedOrder, matchedAmount, outcome);\n                      }\n                    }\n                    //send order events for update\n                    emitOrderEvent(game.orders[i]);\n                    // emitOrderEvent(game.orders[order.matchedOrderId]);\n                }\n\n                if(order.status == OrderStatus.Open) {\n                    //unblock tokens\n                    unblockTokensByOrder(game.orders[i]);\n                    //update order status which is not matched as closed\n                    game.orders[i].status = OrderStatus.Closed;\n                    //send event on this order for update\n                    emitOrderEvent(game.orders[i]);\n                }\n            }\n        }\n        game.status = GameStatus(outcome);\n        emitGameEvent(game);\n    }\n\n    /**\n    * Get Game by id\n    */\n    function getGame(uint _gameId) public view\n        returns (uint, string, string, string, uint, uint, GameStatus, address, uint) {\n            Game memory game = games[_gameId];\n            return (game.id, game.homeTeam, game.awayTeam, game.category, game.startDate,\n                game.endDate, game.status, game.owner, game.totalOrders);\n        }\n    /**\n    * Get order by game id and order id\n    */\n    function getOrderById(uint _gameId, uint _orderId) public view\n        returns (uint, address, uint, OrderType, uint, uint, OrderOutcome, OrderStatus, uint) {\n            Order memory order = games[_gameId].orders[_orderId];\n            return (order.id, order.player, order.gameId, order.orderType, order.amount,\n                order.odd, order.outcome,\n                order.status, order.matchedAmount);\n        }\n\n    /**\n    * Place order on the game\n    */\n    function placeOrder(uint _gameId, uint _orderType, uint _amount, uint _odd, uint _outcome, address _player)\n        public payable returns (uint) {\n            require (_amount > 0);\n            require (_odd > 0);\n            Game storage game = games[_gameId];\n            require (game.status == GameStatus.Open);\n            // require (now < game.startDate);\n\n            uint newId = game.totalOrders;\n            Order memory newOrder = Order(newId, _player, _gameId, OrderType(_orderType), _amount, _odd,\n                OrderOutcome(_outcome), OrderStatus.Open, 0, 0);\n\n            blockTokensByOrderType(newOrder);\n\n            //save order\n            game.orders[newId] = newOrder;\n\n            //increase orders number\n            game.totalOrders += 1;\n\n            //check matched\n            checkMatched(_gameId, newId);\n\n            return newOrder.id;\n        }\n\n    /**\n    * Give free tokens to signed users\n    */\n    function giveFreeTokens(uint _amount, address _toUser) public returns (bool) {\n        if(balanceOf[_toUser].owner != _toUser){\n          Wallet memory wallet = Wallet(0, 0, _toUser);\n          balanceOf[_toUser] = wallet;\n        }\n        transferTokens(msg.sender, _toUser, _amount);\n        return true;\n    }\n\n    /**\n    * Get balance\n    */\n    function getBalance() public view returns (uint, uint, address) {\n        Wallet memory wallet = balanceOf[msg.sender];\n        return (wallet.amount, wallet.blockAmount, wallet.owner);\n    }\n\n    /**\n    * Block tokens by order type\n    */\n    function blockTokensByOrderType(Order order) private {\n        if(order.orderType == OrderType.Buy){\n          //Block tokens for this orders when is Buy order\n          blockTokens(order.player, order.amount);\n        }else{\n          //Block tokens for this orders when is Sell order\n          uint amount = order.amount * order.odd / 100;\n          blockTokens(order.player, amount);\n        }\n    }\n\n    /**\n    * Unblock tokens by order type\n    *\n    * amount = 300\n    * odd = 140\n    * 300 00 140\n    * 4200000\n    */\n    function unblockTokensByOrder(Order order) private {\n        if(order.orderType == OrderType.Buy){\n          //Block tokens for this orders\n          unblockTokens(order.player, order.amount);\n        }else{\n          //Block tokens for this orders\n           uint amount = order.amount * order.odd / 100;\n          unblockTokens(order.player, amount);\n        }\n    }\n\n\n    /**\n    * Transfer tokens by order type\n    */\n    function transferTokensByOrder(Order order, Order matchedOrder, uint matchedAmount, uint outcome) private {\n        uint transferAmount;\n        address from;\n        address to;\n        if(order.orderType == OrderType.Buy){ // if is buy order\n            transferAmount = matchedAmount * order.odd / 100 - matchedAmount;\n            if (order.outcome == OrderOutcome(outcome)) {\n                //if game's outcome equals order outcome\n                from = matchedOrder.player;\n                to = order.player;\n            }else{\n                //if game's outcome does not equals order outcome\n                from = order.player;\n                to = matchedOrder.player;\n            }\n        }else{ // if is Sell order\n            transferAmount = matchedAmount;\n            if (order.outcome == OrderOutcome(outcome)) {\n                //if game's outcome equals order outcome\n                from = order.player;\n                to = matchedOrder.player;\n            }else{\n                //if game's outcome does not equals order outcome\n                from = matchedOrder.player;\n                to = order.player;\n            }\n        }\n      //transfer money\n      transferTokens(from, to, transferAmount);\n\n    }\n\n    /**\n    * Check orders if matched change status as matched and block tokens\n    */\n    function checkMatched(uint _gameId, uint _newOrderId) private returns(Order){\n        Game storage game = games[_gameId];\n        Order storage newOrder = game.orders[_newOrderId];\n        for (uint i = 0; i < game.totalOrders; i++) {\n            Order storage order = game.orders[i];\n            uint avalaibleAmount = order.amount - order.matchedAmount;\n            uint requestAmount = newOrder.amount - newOrder.matchedAmount;\n\n            if(requestAmount <=0){\n              break;\n            }\n\n            if (\n                order.orderType != newOrder.orderType &&\n                order.odd == newOrder.odd &&\n                order.outcome == newOrder.outcome &&\n                order.player != newOrder.player &&\n                avalaibleAmount > 0 &&\n                requestAmount > 0\n                ) {\n                uint matchedAmount = avalaibleAmount;\n                if(avalaibleAmount > requestAmount){\n                  matchedAmount = requestAmount;\n                }\n\n                order.status = OrderStatus.Matched;\n                order.matchedAmount = order.matchedAmount + matchedAmount;\n                order.matchedOrders[1] = OrderMatched(newOrder.id, matchedAmount);\n                order.totalMatched = order.totalMatched + 1;\n\n                newOrder.status = OrderStatus.Matched;\n                newOrder.matchedOrders[newOrder.totalMatched] = OrderMatched(order.id, matchedAmount);\n                newOrder.matchedAmount = newOrder.matchedAmount + matchedAmount;\n                newOrder.totalMatched = newOrder.totalMatched + 1;\n\n                emitOrderEvent(order);\n            }\n        }\n        emitOrderEvent(newOrder);\n        return newOrder;\n    }\n\n    function emitOrderEvent(Order order) private {\n        emit OrderEvent (order.id, order.player, order.gameId,\n                    order.orderType, order.amount, order.odd, uint(order.outcome),\n                    uint(order.status), order.matchedAmount, order.totalMatched);\n    }\n\n    function emitGameEvent(Game game) private {\n        emit GameEvent(game.id, game.homeTeam, game.awayTeam,\n            game.category, game.startDate, game.endDate, uint(game.status),\n            game.owner, game.totalOrders);\n    }\n}\n",
  "sourcePath": "/Users/giga/projects/bxbet-backend/contracts/Betting.sol",
  "compiler": {
    "name": "solc",
    "version": "0.4.24+commit.e67f0147.Emscripten.clang"
  },
  "schemaVersion": "2.0.0",
  "updatedAt": "2018-07-31T14:01:41.483Z"
}