{
  "contractName": "BXBet",
  "abi": [
    {
      "constant": true,
      "inputs": [],
      "name": "name",
      "outputs": [
        {
          "name": "",
          "type": "string"
        }
      ],
      "payable": false,
      "stateMutability": "view",
      "type": "function"
    },
    {
      "constant": true,
      "inputs": [],
      "name": "totalSupply",
      "outputs": [
        {
          "name": "",
          "type": "uint256"
        }
      ],
      "payable": false,
      "stateMutability": "view",
      "type": "function"
    },
    {
      "constant": true,
      "inputs": [],
      "name": "totalGames",
      "outputs": [
        {
          "name": "",
          "type": "uint256"
        }
      ],
      "payable": false,
      "stateMutability": "view",
      "type": "function"
    },
    {
      "constant": true,
      "inputs": [],
      "name": "decimals",
      "outputs": [
        {
          "name": "",
          "type": "uint8"
        }
      ],
      "payable": false,
      "stateMutability": "view",
      "type": "function"
    },
    {
      "constant": false,
      "inputs": [
        {
          "name": "_user",
          "type": "address"
        },
        {
          "name": "_value",
          "type": "uint256"
        }
      ],
      "name": "blockTokens",
      "outputs": [],
      "payable": false,
      "stateMutability": "nonpayable",
      "type": "function"
    },
    {
      "constant": false,
      "inputs": [
        {
          "name": "_value",
          "type": "uint256"
        }
      ],
      "name": "burn",
      "outputs": [
        {
          "name": "success",
          "type": "bool"
        }
      ],
      "payable": false,
      "stateMutability": "nonpayable",
      "type": "function"
    },
    {
      "constant": true,
      "inputs": [
        {
          "name": "",
          "type": "address"
        }
      ],
      "name": "balanceOf",
      "outputs": [
        {
          "name": "amount",
          "type": "uint256"
        },
        {
          "name": "blockAmount",
          "type": "uint256"
        },
        {
          "name": "owner",
          "type": "address"
        }
      ],
      "payable": false,
      "stateMutability": "view",
      "type": "function"
    },
    {
      "constant": true,
      "inputs": [],
      "name": "owner",
      "outputs": [
        {
          "name": "",
          "type": "address"
        }
      ],
      "payable": false,
      "stateMutability": "view",
      "type": "function"
    },
    {
      "constant": true,
      "inputs": [],
      "name": "symbol",
      "outputs": [
        {
          "name": "",
          "type": "string"
        }
      ],
      "payable": false,
      "stateMutability": "view",
      "type": "function"
    },
    {
      "constant": false,
      "inputs": [
        {
          "name": "_user",
          "type": "address"
        },
        {
          "name": "_value",
          "type": "uint256"
        }
      ],
      "name": "unblockTokens",
      "outputs": [],
      "payable": false,
      "stateMutability": "nonpayable",
      "type": "function"
    },
    {
      "constant": false,
      "inputs": [
        {
          "name": "_from",
          "type": "address"
        },
        {
          "name": "_to",
          "type": "address"
        },
        {
          "name": "_value",
          "type": "uint256"
        }
      ],
      "name": "transferTokens",
      "outputs": [],
      "payable": false,
      "stateMutability": "nonpayable",
      "type": "function"
    },
    {
      "constant": false,
      "inputs": [
        {
          "name": "newOwner",
          "type": "address"
        }
      ],
      "name": "transferOwnership",
      "outputs": [],
      "payable": false,
      "stateMutability": "nonpayable",
      "type": "function"
    },
    {
      "inputs": [
        {
          "name": "initialSupply",
          "type": "uint256"
        },
        {
          "name": "tokenName",
          "type": "string"
        },
        {
          "name": "tokenSymbol",
          "type": "string"
        }
      ],
      "payable": false,
      "stateMutability": "nonpayable",
      "type": "constructor"
    },
    {
      "anonymous": false,
      "inputs": [
        {
          "indexed": false,
          "name": "gameId",
          "type": "uint256"
        },
        {
          "indexed": false,
          "name": "homeTeam",
          "type": "string"
        },
        {
          "indexed": false,
          "name": "awayTeam",
          "type": "string"
        },
        {
          "indexed": false,
          "name": "category",
          "type": "string"
        },
        {
          "indexed": false,
          "name": "startDate",
          "type": "uint256"
        },
        {
          "indexed": false,
          "name": "endDate",
          "type": "uint256"
        },
        {
          "indexed": false,
          "name": "status",
          "type": "uint256"
        },
        {
          "indexed": false,
          "name": "owner",
          "type": "address"
        },
        {
          "indexed": false,
          "name": "totalOrders",
          "type": "uint256"
        }
      ],
      "name": "GameEvent",
      "type": "event"
    },
    {
      "anonymous": false,
      "inputs": [
        {
          "indexed": false,
          "name": "orderId",
          "type": "uint256"
        },
        {
          "indexed": false,
          "name": "player",
          "type": "address"
        },
        {
          "indexed": false,
          "name": "gameId",
          "type": "uint256"
        },
        {
          "indexed": false,
          "name": "orderType",
          "type": "uint8"
        },
        {
          "indexed": false,
          "name": "amount",
          "type": "uint256"
        },
        {
          "indexed": false,
          "name": "odd",
          "type": "uint256"
        },
        {
          "indexed": false,
          "name": "outcome",
          "type": "uint256"
        },
        {
          "indexed": false,
          "name": "status",
          "type": "uint256"
        },
        {
          "indexed": false,
          "name": "matchedOrderId",
          "type": "uint256"
        }
      ],
      "name": "OrderEvent",
      "type": "event"
    },
    {
      "anonymous": false,
      "inputs": [
        {
          "indexed": true,
          "name": "from",
          "type": "address"
        },
        {
          "indexed": true,
          "name": "to",
          "type": "address"
        },
        {
          "indexed": false,
          "name": "value",
          "type": "uint256"
        }
      ],
      "name": "Transfer",
      "type": "event"
    },
    {
      "anonymous": false,
      "inputs": [
        {
          "indexed": false,
          "name": "amount",
          "type": "uint256"
        },
        {
          "indexed": false,
          "name": "blockAmount",
          "type": "uint256"
        },
        {
          "indexed": false,
          "name": "owner",
          "type": "address"
        }
      ],
      "name": "BlockTokens",
      "type": "event"
    },
    {
      "anonymous": false,
      "inputs": [
        {
          "indexed": false,
          "name": "amount",
          "type": "uint256"
        },
        {
          "indexed": false,
          "name": "blockAmount",
          "type": "uint256"
        },
        {
          "indexed": false,
          "name": "owner",
          "type": "address"
        }
      ],
      "name": "UnblockTokens",
      "type": "event"
    },
    {
      "anonymous": false,
      "inputs": [
        {
          "indexed": true,
          "name": "from",
          "type": "address"
        },
        {
          "indexed": false,
          "name": "value",
          "type": "uint256"
        }
      ],
      "name": "Burn",
      "type": "event"
    },
    {
      "constant": false,
      "inputs": [
        {
          "name": "_homeTeam",
          "type": "string"
        },
        {
          "name": "_awayTeam",
          "type": "string"
        },
        {
          "name": "_category",
          "type": "string"
        },
        {
          "name": "_startDate",
          "type": "uint256"
        },
        {
          "name": "_endDate",
          "type": "uint256"
        },
        {
          "name": "status",
          "type": "uint256"
        },
        {
          "name": "owner",
          "type": "address"
        }
      ],
      "name": "addGame",
      "outputs": [
        {
          "name": "",
          "type": "uint256"
        }
      ],
      "payable": false,
      "stateMutability": "nonpayable",
      "type": "function"
    },
    {
      "constant": false,
      "inputs": [
        {
          "name": "_gameId",
          "type": "uint256"
        },
        {
          "name": "outcome",
          "type": "uint256"
        }
      ],
      "name": "finishGame",
      "outputs": [],
      "payable": false,
      "stateMutability": "nonpayable",
      "type": "function"
    },
    {
      "constant": true,
      "inputs": [
        {
          "name": "_gameId",
          "type": "uint256"
        }
      ],
      "name": "getGame",
      "outputs": [
        {
          "name": "",
          "type": "uint256"
        },
        {
          "name": "",
          "type": "string"
        },
        {
          "name": "",
          "type": "string"
        },
        {
          "name": "",
          "type": "string"
        },
        {
          "name": "",
          "type": "uint256"
        },
        {
          "name": "",
          "type": "uint256"
        },
        {
          "name": "",
          "type": "uint8"
        },
        {
          "name": "",
          "type": "address"
        },
        {
          "name": "",
          "type": "uint256"
        }
      ],
      "payable": false,
      "stateMutability": "view",
      "type": "function"
    },
    {
      "constant": true,
      "inputs": [
        {
          "name": "_gameId",
          "type": "uint256"
        },
        {
          "name": "_orderId",
          "type": "uint256"
        }
      ],
      "name": "getOrderById",
      "outputs": [
        {
          "name": "",
          "type": "uint256"
        },
        {
          "name": "",
          "type": "address"
        },
        {
          "name": "",
          "type": "uint256"
        },
        {
          "name": "",
          "type": "uint8"
        },
        {
          "name": "",
          "type": "uint256"
        },
        {
          "name": "",
          "type": "uint256"
        },
        {
          "name": "",
          "type": "uint8"
        },
        {
          "name": "",
          "type": "uint8"
        },
        {
          "name": "",
          "type": "uint256"
        }
      ],
      "payable": false,
      "stateMutability": "view",
      "type": "function"
    },
    {
      "constant": false,
      "inputs": [
        {
          "name": "_gameId",
          "type": "uint256"
        },
        {
          "name": "_orderType",
          "type": "uint256"
        },
        {
          "name": "_amount",
          "type": "uint256"
        },
        {
          "name": "_odd",
          "type": "uint256"
        },
        {
          "name": "_outcome",
          "type": "uint256"
        },
        {
          "name": "_player",
          "type": "address"
        }
      ],
      "name": "placeOrder",
      "outputs": [
        {
          "name": "",
          "type": "uint256"
        }
      ],
      "payable": true,
      "stateMutability": "payable",
      "type": "function"
    },
    {
      "constant": false,
      "inputs": [
        {
          "name": "_amount",
          "type": "uint256"
        },
        {
          "name": "_toUser",
          "type": "address"
        }
      ],
      "name": "giveFreeTokens",
      "outputs": [
        {
          "name": "",
          "type": "bool"
        }
      ],
      "payable": false,
      "stateMutability": "nonpayable",
      "type": "function"
    },
    {
      "constant": true,
      "inputs": [],
      "name": "getBalance",
      "outputs": [
        {
          "name": "",
          "type": "uint256"
        },
        {
          "name": "",
          "type": "uint256"
        },
        {
          "name": "",
          "type": "address"
        }
      ],
      "payable": false,
      "stateMutability": "view",
      "type": "function"
    }
  ],
  "bytecode": "0x60806040526002600360006101000a81548160ff021916908360ff1602179055503480156200002d57600080fd5b5060405162003a0d38038062003a0d833981018060405281019080805190602001909291908051820192919060200180518201929190505050828282336000806101000a81548173ffffffffffffffffffffffffffffffffffffffff021916908373ffffffffffffffffffffffffffffffffffffffff160217905550600360009054906101000a900460ff1660ff16600a0a83026004819055506060604051908101604052806004548152602001600081526020013373ffffffffffffffffffffffffffffffffffffffff16815250600560003373ffffffffffffffffffffffffffffffffffffffff1673ffffffffffffffffffffffffffffffffffffffff168152602001908152602001600020600082015181600001556020820151816001015560408201518160020160006101000a81548173ffffffffffffffffffffffffffffffffffffffff021916908373ffffffffffffffffffffffffffffffffffffffff1602179055509050508160019080519060200190620001b1929190620001df565b508060029080519060200190620001ca929190620001df565b5050505060006007819055505050506200028e565b828054600181600116156101000203166002900490600052602060002090601f016020900481019282601f106200022257805160ff191683800117855562000253565b8280016001018555821562000253579182015b828111156200025257825182559160200191906001019062000235565b5b50905062000262919062000266565b5090565b6200028b91905b80821115620002875760008160009055506001016200026d565b5090565b90565b61376f806200029e6000396000f300608060405260043610610107576000357c0100000000000000000000000000000000000000000000000000000000900463ffffffff16806306fdde031461010c57806312065fe01461019c57806318160ddd146102015780632c4e591b1461022c578063313ce56714610257578063371d5c64146102885780633c1a88d71461030457806342966c681461035157806370a08231146103965780638da5cb5b1461042757806395d89b411461047e5780639b2675401461050e578063a2f77bcc1461055b578063a64b6e5f1461073d578063c46ab960146107aa578063d5723bf714610883578063f1c21bde146108ba578063f2fde38b1461091f578063f91e642f14610962575b600080fd5b34801561011857600080fd5b50610121610aa9565b6040518080602001828103825283818151815260200191508051906020019080838360005b83811015610161578082015181840152602081019050610146565b50505050905090810190601f16801561018e5780820380516001836020036101000a031916815260200191505b509250505060405180910390f35b3480156101a857600080fd5b506101b1610b47565b604051808481526020018381526020018273ffffffffffffffffffffffffffffffffffffffff1673ffffffffffffffffffffffffffffffffffffffff168152602001935050505060405180910390f35b34801561020d57600080fd5b50610216610c26565b6040518082815260200191505060405180910390f35b34801561023857600080fd5b50610241610c2c565b6040518082815260200191505060405180910390f35b34801561026357600080fd5b5061026c610c32565b604051808260ff1660ff16815260200191505060405180910390f35b6102ee6004803603810190808035906020019092919080359060200190929190803590602001909291908035906020019092919080359060200190929190803573ffffffffffffffffffffffffffffffffffffffff169060200190929190505050610c45565b6040518082815260200191505060405180910390f35b34801561031057600080fd5b5061034f600480360381019080803573ffffffffffffffffffffffffffffffffffffffff16906020019092919080359060200190929190505050610e5f565b005b34801561035d57600080fd5b5061037c60048036038101908080359060200190929190505050610fbd565b604051808215151515815260200191505060405180910390f35b3480156103a257600080fd5b506103d7600480360381019080803573ffffffffffffffffffffffffffffffffffffffff16906020019092919050505061108e565b604051808481526020018381526020018273ffffffffffffffffffffffffffffffffffffffff1673ffffffffffffffffffffffffffffffffffffffff168152602001935050505060405180910390f35b34801561043357600080fd5b5061043c6110d8565b604051808273ffffffffffffffffffffffffffffffffffffffff1673ffffffffffffffffffffffffffffffffffffffff16815260200191505060405180910390f35b34801561048a57600080fd5b506104936110fd565b6040518080602001828103825283818151815260200191508051906020019080838360005b838110156104d35780820151818401526020810190506104b8565b50505050905090810190601f1680156105005780820380516001836020036101000a031916815260200191505b509250505060405180910390f35b34801561051a57600080fd5b50610559600480360381019080803573ffffffffffffffffffffffffffffffffffffffff1690602001909291908035906020019092919050505061119b565b005b34801561056757600080fd5b50610586600480360381019080803590602001909291905050506112f9565b604051808a81526020018060200180602001806020018981526020018881526020018760038111156105b457fe5b60ff1681526020018673ffffffffffffffffffffffffffffffffffffffff1673ffffffffffffffffffffffffffffffffffffffff16815260200185815260200184810384528c818151815260200191508051906020019080838360005b8381101561062c578082015181840152602081019050610611565b50505050905090810190601f1680156106595780820380516001836020036101000a031916815260200191505b5084810383528b818151815260200191508051906020019080838360005b83811015610692578082015181840152602081019050610677565b50505050905090810190601f1680156106bf5780820380516001836020036101000a031916815260200191505b5084810382528a818151815260200191508051906020019080838360005b838110156106f85780820151818401526020810190506106dd565b50505050905090810190601f1680156107255780820380516001836020036101000a031916815260200191505b509c5050505050505050505050505060405180910390f35b34801561074957600080fd5b506107a8600480360381019080803573ffffffffffffffffffffffffffffffffffffffff169060200190929190803573ffffffffffffffffffffffffffffffffffffffff1690602001909291908035906020019092919050505061161a565b005b3480156107b657600080fd5b506107df600480360381019080803590602001909291908035906020019092919050505061162a565b604051808a81526020018973ffffffffffffffffffffffffffffffffffffffff1673ffffffffffffffffffffffffffffffffffffffff16815260200188815260200187600181111561082d57fe5b60ff16815260200186815260200185815260200184600281111561084d57fe5b60ff16815260200183600481111561086157fe5b60ff168152602001828152602001995050505050505050505060405180910390f35b34801561088f57600080fd5b506108b860048036038101908080359060200190929190803590602001909291905050506117d3565b005b3480156108c657600080fd5b5061090560048036038101908080359060200190929190803573ffffffffffffffffffffffffffffffffffffffff169060200190929190505050612865565b604051808215151515815260200191505060405180910390f35b34801561092b57600080fd5b50610960600480360381019080803573ffffffffffffffffffffffffffffffffffffffff1690602001909291905050506129f1565b005b34801561096e57600080fd5b50610a93600480360381019080803590602001908201803590602001908080601f0160208091040260200160405190810160405280939291908181526020018383808284378201915050505050509192919290803590602001908201803590602001908080601f0160208091040260200160405190810160405280939291908181526020018383808284378201915050505050509192919290803590602001908201803590602001908080601f0160208091040260200160405190810160405280939291908181526020018383808284378201915050505050509192919290803590602001909291908035906020019092919080359060200190929190803573ffffffffffffffffffffffffffffffffffffffff169060200190929190505050612a8f565b6040518082815260200191505060405180910390f35b60018054600181600116156101000203166002900480601f016020809104026020016040519081016040528092919081815260200182805460018160011615610100020316600290048015610b3f5780601f10610b1457610100808354040283529160200191610b3f565b820191906000526020600020905b815481529060010190602001808311610b2257829003601f168201915b505050505081565b6000806000610b54613574565b600560003373ffffffffffffffffffffffffffffffffffffffff1673ffffffffffffffffffffffffffffffffffffffff1681526020019081526020016000206060604051908101604052908160008201548152602001600182015481526020016002820160009054906101000a900473ffffffffffffffffffffffffffffffffffffffff1673ffffffffffffffffffffffffffffffffffffffff1673ffffffffffffffffffffffffffffffffffffffff1681525050905080600001518160200151826040015193509350935050909192565b60045481565b60075481565b600360009054906101000a900460ff1681565b6000806000610c526135ac565b600660008b8152602001908152602001600020925082600701549150610120604051908101604052808381526020018673ffffffffffffffffffffffffffffffffffffffff1681526020018b81526020018a6001811115610caf57fe5b6001811115610cba57fe5b8152602001898152602001888152602001876002811115610cd757fe5b6002811115610ce257fe5b815260200160006004811115610cf457fe5b8152602001600069ffffffffffffffffffff168152509050610d168a82612c51565b9050610d2181612f2a565b808360080160008481526020019081526020016000206000820151816000015560208201518160010160006101000a81548173ffffffffffffffffffffffffffffffffffffffff021916908373ffffffffffffffffffffffffffffffffffffffff1602179055506040820151816002015560608201518160030160006101000a81548160ff02191690836001811115610db657fe5b02179055506080820151816004015560a0820151816005015560c08201518160060160006101000a81548160ff02191690836002811115610df357fe5b021790555060e08201518160060160016101000a81548160ff02191690836004811115610e1c57fe5b0217905550610100820151816007015590505060018360070160008282540192505081905550610e4b81612f91565b806000015193505050509695505050505050565b60008060008473ffffffffffffffffffffffffffffffffffffffff1614151515610e8857600080fd5b600560008573ffffffffffffffffffffffffffffffffffffffff1673ffffffffffffffffffffffffffffffffffffffff168152602001908152602001600020915082826000015410151515610edc57600080fd5b816000015490508282600001600082825403925050819055508282600101600082825401925050819055507fe6d7d4af5f9a5ec985842192dd882d7b84ed34443b77de79b632c4c626d3ea55826000015483600101548460020160009054906101000a900473ffffffffffffffffffffffffffffffffffffffff16604051808481526020018381526020018273ffffffffffffffffffffffffffffffffffffffff1673ffffffffffffffffffffffffffffffffffffffff168152602001935050505060405180910390a18083836000015401141515610fb757fe5b50505050565b600080600560003373ffffffffffffffffffffffffffffffffffffffff1673ffffffffffffffffffffffffffffffffffffffff16815260200190815260200160002090508281600001541015151561101457600080fd5b828160000160008282540392505081905550826004600082825403925050819055503373ffffffffffffffffffffffffffffffffffffffff167fcc16f5dbb4873280815c1ee09dbd06736cffcc184412cf7a71a0fdb75d397ca5846040518082815260200191505060405180910390a26001915050919050565b60056020528060005260406000206000915090508060000154908060010154908060020160009054906101000a900473ffffffffffffffffffffffffffffffffffffffff16905083565b6000809054906101000a900473ffffffffffffffffffffffffffffffffffffffff1681565b60028054600181600116156101000203166002900480601f0160208091040260200160405190810160405280929190818152602001828054600181600116156101000203166002900480156111935780601f1061116857610100808354040283529160200191611193565b820191906000526020600020905b81548152906001019060200180831161117657829003601f168201915b505050505081565b60008060008473ffffffffffffffffffffffffffffffffffffffff16141515156111c457600080fd5b600560008573ffffffffffffffffffffffffffffffffffffffff1673ffffffffffffffffffffffffffffffffffffffff16815260200190815260200160002091508282600001541015151561121857600080fd5b816000015490508282600101600082825403925050819055508282600001600082825401925050819055507f04da2c6b9b4279f176117b4ddefd9952278563b89b1ae17b8f24f2737e31b471826000015483600101548460020160009054906101000a900473ffffffffffffffffffffffffffffffffffffffff16604051808481526020018381526020018273ffffffffffffffffffffffffffffffffffffffff1673ffffffffffffffffffffffffffffffffffffffff168152602001935050505060405180910390a180838360000154031415156112f357fe5b50505050565b600060608060606000806000806000611310613630565b600660008c8152602001908152602001600020610120604051908101604052908160008201548152602001600182018054600181600116156101000203166002900480601f0160208091040260200160405190810160405280929190818152602001828054600181600116156101000203166002900480156113d35780601f106113a8576101008083540402835291602001916113d3565b820191906000526020600020905b8154815290600101906020018083116113b657829003601f168201915b50505050508152602001600282018054600181600116156101000203166002900480601f0160208091040260200160405190810160405280929190818152602001828054600181600116156101000203166002900480156114755780601f1061144a57610100808354040283529160200191611475565b820191906000526020600020905b81548152906001019060200180831161145857829003601f168201915b50505050508152602001600382018054600181600116156101000203166002900480601f0160208091040260200160405190810160405280929190818152602001828054600181600116156101000203166002900480156115175780601f106114ec57610100808354040283529160200191611517565b820191906000526020600020905b8154815290600101906020018083116114fa57829003601f168201915b5050505050815260200160048201548152602001600582015481526020016006820160009054906101000a900460ff16600381111561155257fe5b600381111561155d57fe5b81526020016006820160019054906101000a900473ffffffffffffffffffffffffffffffffffffffff1673ffffffffffffffffffffffffffffffffffffffff1673ffffffffffffffffffffffffffffffffffffffff1681526020016007820154815250509050806000015181602001518260400151836060015184608001518560a001518660c001518760e00151886101000151879750869650859550995099509950995099509950995099509950509193959799909294969850565b611625838383613080565b505050565b60008060008060008060008060006116406135ac565b600660008d815260200190815260200160002060080160008c81526020019081526020016000206101206040519081016040529081600082015481526020016001820160009054906101000a900473ffffffffffffffffffffffffffffffffffffffff1673ffffffffffffffffffffffffffffffffffffffff1673ffffffffffffffffffffffffffffffffffffffff168152602001600282015481526020016003820160009054906101000a900460ff1660018111156116fc57fe5b600181111561170757fe5b815260200160048201548152602001600582015481526020016006820160009054906101000a900460ff16600281111561173d57fe5b600281111561174857fe5b81526020016006820160019054906101000a900460ff16600481111561176a57fe5b600481111561177557fe5b81526020016007820154815250509050806000015181602001518260400151836060015184608001518560a001518660c001518760e00151886101000151995099509950995099509950995099509950509295985092959850929598565b60008060006006600086815260200190815260200160002092506003808111156117f957fe5b8360060160009054906101000a900460ff16600381111561181657fe5b14151561182257600080fd5b600091505b826007015482101561258757826008016000838152602001908152602001600020905060048081111561185657fe5b8160060160019054906101000a900460ff16600481111561187357fe5b14151561257a576001600481111561188757fe5b8160060160019054906101000a900460ff1660048111156118a457fe5b141561229c576119e38360080160008481526020019081526020016000206101206040519081016040529081600082015481526020016001820160009054906101000a900473ffffffffffffffffffffffffffffffffffffffff1673ffffffffffffffffffffffffffffffffffffffff1673ffffffffffffffffffffffffffffffffffffffff168152602001600282015481526020016003820160009054906101000a900460ff16600181111561195757fe5b600181111561196257fe5b815260200160048201548152602001600582015481526020016006820160009054906101000a900460ff16600281111561199857fe5b60028111156119a357fe5b81526020016006820160019054906101000a900460ff1660048111156119c557fe5b60048111156119d057fe5b815260200160078201548152505061320a565b611b20836008016000836007015481526020019081526020016000206101206040519081016040529081600082015481526020016001820160009054906101000a900473ffffffffffffffffffffffffffffffffffffffff1673ffffffffffffffffffffffffffffffffffffffff1673ffffffffffffffffffffffffffffffffffffffff168152602001600282015481526020016003820160009054906101000a900460ff166001811115611a9457fe5b6001811115611a9f57fe5b815260200160048201548152602001600582015481526020016006820160009054906101000a900460ff166002811115611ad557fe5b6002811115611ae057fe5b81526020016006820160019054906101000a900460ff166004811115611b0257fe5b6004811115611b0d57fe5b815260200160078201548152505061320a565b60006001811115611b2d57fe5b8160030160009054906101000a900460ff166001811115611b4a57fe5b1415611c8557836002811115611b5c57fe5b6002811115611b6757fe5b8160060160009054906101000a900460ff166002811115611b8457fe5b1415611c0757600283600801600084815260200190815260200160002060060160016101000a81548160ff02191690836004811115611bbf57fe5b021790555060038360080160008360070154815260200190815260200160002060060160016101000a81548160ff02191690836004811115611bfd57fe5b0217905550611c80565b600383600801600084815260200190815260200160002060060160016101000a81548160ff02191690836004811115611c3c57fe5b021790555060028360080160008360070154815260200190815260200160002060060160016101000a81548160ff02191690836004811115611c7a57fe5b02179055505b611db6565b836002811115611c9157fe5b6002811115611c9c57fe5b8160060160009054906101000a900460ff166002811115611cb957fe5b1415611d3c57600383600801600084815260200190815260200160002060060160016101000a81548160ff02191690836004811115611cf457fe5b021790555060028360080160008360070154815260200190815260200160002060060160016101000a81548160ff02191690836004811115611d3257fe5b0217905550611db5565b600283600801600084815260200190815260200160002060060160016101000a81548160ff02191690836004811115611d7157fe5b021790555060038360080160008360070154815260200190815260200160002060060160016101000a81548160ff02191690836004811115611daf57fe5b02179055505b5b6120258360080160008481526020019081526020016000206101206040519081016040529081600082015481526020016001820160009054906101000a900473ffffffffffffffffffffffffffffffffffffffff1673ffffffffffffffffffffffffffffffffffffffff1673ffffffffffffffffffffffffffffffffffffffff168152602001600282015481526020016003820160009054906101000a900460ff166001811115611e6357fe5b6001811115611e6e57fe5b815260200160048201548152602001600582015481526020016006820160009054906101000a900460ff166002811115611ea457fe5b6002811115611eaf57fe5b81526020016006820160019054906101000a900460ff166004811115611ed157fe5b6004811115611edc57fe5b8152602001600782015481525050846008016000846007015481526020019081526020016000206101206040519081016040529081600082015481526020016001820160009054906101000a900473ffffffffffffffffffffffffffffffffffffffff1673ffffffffffffffffffffffffffffffffffffffff1673ffffffffffffffffffffffffffffffffffffffff168152602001600282015481526020016003820160009054906101000a900460ff166001811115611f9857fe5b6001811115611fa357fe5b815260200160048201548152602001600582015481526020016006820160009054906101000a900460ff166002811115611fd957fe5b6002811115611fe457fe5b81526020016006820160019054906101000a900460ff16600481111561200657fe5b600481111561201157fe5b815260200160078201548152505086613271565b61215e8360080160008481526020019081526020016000206101206040519081016040529081600082015481526020016001820160009054906101000a900473ffffffffffffffffffffffffffffffffffffffff1673ffffffffffffffffffffffffffffffffffffffff1673ffffffffffffffffffffffffffffffffffffffff168152602001600282015481526020016003820160009054906101000a900460ff1660018111156120d257fe5b60018111156120dd57fe5b815260200160048201548152602001600582015481526020016006820160009054906101000a900460ff16600281111561211357fe5b600281111561211e57fe5b81526020016006820160019054906101000a900460ff16600481111561214057fe5b600481111561214b57fe5b8152602001600782015481525050612f91565b61229b836008016000836007015481526020019081526020016000206101206040519081016040529081600082015481526020016001820160009054906101000a900473ffffffffffffffffffffffffffffffffffffffff1673ffffffffffffffffffffffffffffffffffffffff1673ffffffffffffffffffffffffffffffffffffffff168152602001600282015481526020016003820160009054906101000a900460ff16600181111561220f57fe5b600181111561221a57fe5b815260200160048201548152602001600582015481526020016006820160009054906101000a900460ff16600281111561225057fe5b600281111561225b57fe5b81526020016006820160019054906101000a900460ff16600481111561227d57fe5b600481111561228857fe5b8152602001600782015481525050612f91565b5b600060048111156122a957fe5b8160060160019054906101000a900460ff1660048111156122c657fe5b1415612579576124058360080160008481526020019081526020016000206101206040519081016040529081600082015481526020016001820160009054906101000a900473ffffffffffffffffffffffffffffffffffffffff1673ffffffffffffffffffffffffffffffffffffffff1673ffffffffffffffffffffffffffffffffffffffff168152602001600282015481526020016003820160009054906101000a900460ff16600181111561237957fe5b600181111561238457fe5b815260200160048201548152602001600582015481526020016006820160009054906101000a900460ff1660028111156123ba57fe5b60028111156123c557fe5b81526020016006820160019054906101000a900460ff1660048111156123e757fe5b60048111156123f257fe5b815260200160078201548152505061320a565b600483600801600084815260200190815260200160002060060160016101000a81548160ff0219169083600481111561243a57fe5b02179055506125788360080160008481526020019081526020016000206101206040519081016040529081600082015481526020016001820160009054906101000a900473ffffffffffffffffffffffffffffffffffffffff1673ffffffffffffffffffffffffffffffffffffffff1673ffffffffffffffffffffffffffffffffffffffff168152602001600282015481526020016003820160009054906101000a900460ff1660018111156124ec57fe5b60018111156124f757fe5b815260200160048201548152602001600582015481526020016006820160009054906101000a900460ff16600281111561252d57fe5b600281111561253857fe5b81526020016006820160019054906101000a900460ff16600481111561255a57fe5b600481111561256557fe5b8152602001600782015481525050612f91565b5b5b8180600101925050611827565b83600381111561259357fe5b8360060160006101000a81548160ff021916908360038111156125b257fe5b021790555061285e83610120604051908101604052908160008201548152602001600182018054600181600116156101000203166002900480601f01602080910402602001604051908101604052809291908181526020018280546001816001161561010002031660029004801561266b5780601f106126405761010080835404028352916020019161266b565b820191906000526020600020905b81548152906001019060200180831161264e57829003601f168201915b50505050508152602001600282018054600181600116156101000203166002900480601f01602080910402602001604051908101604052809291908181526020018280546001816001161561010002031660029004801561270d5780601f106126e25761010080835404028352916020019161270d565b820191906000526020600020905b8154815290600101906020018083116126f057829003601f168201915b50505050508152602001600382018054600181600116156101000203166002900480601f0160208091040260200160405190810160405280929190818152602001828054600181600116156101000203166002900480156127af5780601f10612784576101008083540402835291602001916127af565b820191906000526020600020905b81548152906001019060200180831161279257829003601f168201915b5050505050815260200160048201548152602001600582015481526020016006820160009054906101000a900460ff1660038111156127ea57fe5b60038111156127f557fe5b81526020016006820160019054906101000a900473ffffffffffffffffffffffffffffffffffffffff1673ffffffffffffffffffffffffffffffffffffffff1673ffffffffffffffffffffffffffffffffffffffff16815260200160078201548152505061336f565b5050505050565b600061286f613574565b8273ffffffffffffffffffffffffffffffffffffffff16600560008573ffffffffffffffffffffffffffffffffffffffff1673ffffffffffffffffffffffffffffffffffffffff16815260200190815260200160002060020160009054906101000a900473ffffffffffffffffffffffffffffffffffffffff1673ffffffffffffffffffffffffffffffffffffffff161415156129db5760606040519081016040528060008152602001600081526020018473ffffffffffffffffffffffffffffffffffffffff16815250905080600560008573ffffffffffffffffffffffffffffffffffffffff1673ffffffffffffffffffffffffffffffffffffffff168152602001908152602001600020600082015181600001556020820151816001015560408201518160020160006101000a81548173ffffffffffffffffffffffffffffffffffffffff021916908373ffffffffffffffffffffffffffffffffffffffff1602179055509050505b6129e633848661161a565b600191505092915050565b6000809054906101000a900473ffffffffffffffffffffffffffffffffffffffff1673ffffffffffffffffffffffffffffffffffffffff163373ffffffffffffffffffffffffffffffffffffffff16141515612a4c57600080fd5b806000806101000a81548173ffffffffffffffffffffffffffffffffffffffff021916908373ffffffffffffffffffffffffffffffffffffffff16021790555050565b600080612a9a613630565b8587101515612aa857600080fd5b60016007600082825401925050819055506001600754039150610120604051908101604052808381526020018b81526020018a8152602001898152602001888152602001878152602001866003811115612afe57fe5b6003811115612b0957fe5b81526020018573ffffffffffffffffffffffffffffffffffffffff168152602001600081525090508060066000848152602001908152602001600020600082015181600001556020820151816001019080519060200190612b6b92919061369e565b506040820151816002019080519060200190612b8892919061369e565b506060820151816003019080519060200190612ba592919061369e565b506080820151816004015560a0820151816005015560c08201518160060160006101000a81548160ff02191690836003811115612bde57fe5b021790555060e08201518160060160016101000a81548173ffffffffffffffffffffffffffffffffffffffff021916908373ffffffffffffffffffffffffffffffffffffffff1602179055506101008201518160070155905050612c418161336f565b8192505050979650505050505050565b612c596135ac565b6000806000600660008781526020019081526020016000209250600091505b8260070154821015612f1e57826008016000838152602001908152602001600020905084608001518160040154148015612cdd575084606001516001811115612cbd57fe5b8160030160009054906101000a900460ff166001811115612cda57fe5b14155b8015612cf057508460a001518160050154145b8015612d2657508460c001516002811115612d0757fe5b8160060160009054906101000a900460ff166002811115612d2457fe5b145b8015612d59575060006004811115612d3a57fe5b8160060160019054906101000a900460ff166004811115612d5757fe5b145b15612f1157600183600801600084815260200190815260200160002060060160016101000a81548160ff02191690836004811115612d9357fe5b021790555084600001518360080160008481526020019081526020016000206007018190555080600001548561010001818152505060018560e001906004811115612dda57fe5b90816004811115612de757fe5b81525050612f10816101206040519081016040529081600082015481526020016001820160009054906101000a900473ffffffffffffffffffffffffffffffffffffffff1673ffffffffffffffffffffffffffffffffffffffff1673ffffffffffffffffffffffffffffffffffffffff168152602001600282015481526020016003820160009054906101000a900460ff166001811115612e8457fe5b6001811115612e8f57fe5b815260200160048201548152602001600582015481526020016006820160009054906101000a900460ff166002811115612ec557fe5b6002811115612ed057fe5b81526020016006820160019054906101000a900460ff166004811115612ef257fe5b6004811115612efd57fe5b8152602001600782015481525050612f91565b5b8180600101925050612c78565b84935050505092915050565b6000806001811115612f3857fe5b82606001516001811115612f4857fe5b1415612f6557612f6082602001518360800151610e5f565b612f8d565b60648260a00151836080015102811515612f7b57fe5b049050612f8c826020015182610e5f565b5b5050565b7f739565f081856497960d36c2a94e409a521e52eab00b960d8c4a5cdc517431f6816000015182602001518360400151846060015185608001518660a001518760c001516002811115612fe057fe5b8860e001516004811115612ff057fe5b896101000151604051808a81526020018973ffffffffffffffffffffffffffffffffffffffff1673ffffffffffffffffffffffffffffffffffffffff16815260200188815260200187600181111561304457fe5b60ff168152602001868152602001858152602001848152602001838152602001828152602001995050505050505050505060405180910390a150565b6000806000808573ffffffffffffffffffffffffffffffffffffffff16141515156130aa57600080fd5b600560008773ffffffffffffffffffffffffffffffffffffffff1673ffffffffffffffffffffffffffffffffffffffff1681526020019081526020016000209250838360000154101515156130fe57600080fd5b600560008673ffffffffffffffffffffffffffffffffffffffff1673ffffffffffffffffffffffffffffffffffffffff168152602001908152602001600020915081600001548483600001540111151561315757600080fd5b816000015483600001540190508383600001600082825403925050819055508382600001600082825401925050819055508473ffffffffffffffffffffffffffffffffffffffff168673ffffffffffffffffffffffffffffffffffffffff167fddf252ad1be2c89b69c2b068fc378daa952ba7f163c4a11628f55a4df523b3ef866040518082815260200191505060405180910390a380826000015484600001540114151561320257fe5b505050505050565b600080600181111561321857fe5b8260600151600181111561322857fe5b1415613245576132408260200151836080015161119b565b61326d565b60648260a0015183608001510281151561325b57fe5b04905061326c82602001518261119b565b5b5050565b600080600080600181111561328257fe5b8660600151600181111561329257fe5b14156133055760648660a001518760800151028115156132ae57fe5b0492508360028111156132bd57fe5b60028111156132c857fe5b8660c0015160028111156132d857fe5b14156132f1578460200151915085602001519050613300565b85602001519150846020015190505b61335c565b8560800151925083600281111561331857fe5b600281111561332357fe5b8660c00151600281111561333357fe5b141561334c57856020015191508460200151905061335b565b84602001519150856020015190505b5b61336782828561161a565b505050505050565b7fd0a94a76258019a0888564b6d54f60b20c36602e696169f8af570f6643d4655b816000015182602001518360400151846060015185608001518660a001518760c0015160038111156133be57fe5b8860e00151896101000151604051808a81526020018060200180602001806020018981526020018881526020018781526020018673ffffffffffffffffffffffffffffffffffffffff1673ffffffffffffffffffffffffffffffffffffffff16815260200185815260200184810384528c818151815260200191508051906020019080838360005b83811015613461578082015181840152602081019050613446565b50505050905090810190601f16801561348e5780820380516001836020036101000a031916815260200191505b5084810383528b818151815260200191508051906020019080838360005b838110156134c75780820151818401526020810190506134ac565b50505050905090810190601f1680156134f45780820380516001836020036101000a031916815260200191505b5084810382528a818151815260200191508051906020019080838360005b8381101561352d578082015181840152602081019050613512565b50505050905090810190601f16801561355a5780820380516001836020036101000a031916815260200191505b509c5050505050505050505050505060405180910390a150565b6060604051908101604052806000815260200160008152602001600073ffffffffffffffffffffffffffffffffffffffff1681525090565b6101206040519081016040528060008152602001600073ffffffffffffffffffffffffffffffffffffffff16815260200160008152602001600060018111156135f157fe5b815260200160008152602001600081526020016000600281111561361157fe5b81526020016000600481111561362357fe5b8152602001600081525090565b610120604051908101604052806000815260200160608152602001606081526020016060815260200160008152602001600081526020016000600381111561367457fe5b8152602001600073ffffffffffffffffffffffffffffffffffffffff168152602001600081525090565b828054600181600116156101000203166002900490600052602060002090601f016020900481019282601f106136df57805160ff191683800117855561370d565b8280016001018555821561370d579182015b8281111561370c5782518255916020019190600101906136f1565b5b50905061371a919061371e565b5090565b61374091905b8082111561373c576000816000905550600101613724565b5090565b905600a165627a7a7230582003ce350b05715507f10bfc850c2747f0d7060249df2d692f5b4acad0dd19dc640029",
  "source": "pragma solidity ^0.4.24;\n\nimport \"./owned.sol\";\nimport \"./balance.sol\";\n\n\ncontract BXBet is Owned, Balance {\n    mapping(uint => Game) games;\n    enum GameStatus { FinishedDraw, FinishedOne, FinishedTwo, Open }\n    enum OrderType { Buy, Sell }\n    enum OrderStatus { Open, Matched, Win, Lose, Closed }\n    enum OrderOutcome {Draw, One, Two }\n    uint public totalGames;\n    uint80 constant NONE = uint80(0);\n\n    // We use the struct datatype to store the event information.\n    struct Game {\n        uint id;\n        string homeTeam;\n        string awayTeam;\n        string category;\n        uint startDate;\n        uint endDate;\n        GameStatus status;\n        address owner;\n        uint totalOrders;\n        mapping (uint => Order) orders;\n    }\n\n    struct Order {\n        uint id;\n        address player;\n        uint gameId;\n        OrderType orderType; // buy or sell\n        uint amount; // 100\n        uint odd; // 1.5\n        OrderOutcome outcome; // 1, x, 2\n        OrderStatus status;\n        uint matchedOrderId;\n    }\n\n     /**\n     * Constrctor function\n     *\n     * Initializes contract with initial supply tokens to the creator of the contract\n     */\n    constructor (uint256 initialSupply, string tokenName, string tokenSymbol)\n        Balance(initialSupply, tokenName, tokenSymbol) public {\n            totalGames = 0;\n        }\n\n    /**\n    * Add Game Event\n    */\n    event GameEvent(uint gameId, string homeTeam, string awayTeam, string category, uint startDate,\n        uint endDate, uint status, address owner, uint totalOrders);\n\n    /**\n    * Place order event\n    */\n    event OrderEvent(uint orderId, address player, uint gameId, OrderType orderType,\n        uint amount, uint odd, uint outcome, uint status, uint matchedOrderId);\n\n    /**\n    * Add Game\n    */\n    function addGame(string _homeTeam, string _awayTeam, string _category,\n        uint _startDate, uint _endDate, uint status, address owner) public returns (uint) {\n        // require (now > _startDate);\n        require(_startDate < _endDate);\n        totalGames += 1;\n        uint gameIndex = totalGames - 1;\n        Game memory game = Game(gameIndex, _homeTeam, _awayTeam, _category,\n            _startDate, _endDate, GameStatus(status), owner, 0);\n        games[gameIndex] = game;\n\n        emitGameEvent(game);\n\n        return gameIndex;\n    }\n\n    /**\n    * Finish game by gameId and result\n    */\n    function finishGame(uint _gameId, uint outcome) public {\n        Game storage game = games[_gameId];\n        require(game.status == GameStatus.Open);\n        for (uint i = 0; i < game.totalOrders; i++) {\n            Order storage order = game.orders[i];\n            if (order.status != OrderStatus.Closed) {\n                if (order.status == OrderStatus.Matched) {\n                    unblockTokensByOrder(game.orders[i]);\n                    unblockTokensByOrder(game.orders[order.matchedOrderId]);\n                    if (order.orderType == OrderType.Buy){ //if is Buy order\n                        if (order.outcome == OrderOutcome(outcome)) {\n                           //if game's outcome equals order outcome\n                            game.orders[i].status = OrderStatus.Win;\n                            game.orders[order.matchedOrderId].status = OrderStatus.Lose;\n                        }else{\n                           //if game's outcome does not equals order outcome\n                            game.orders[i].status = OrderStatus.Lose;\n                            game.orders[order.matchedOrderId].status = OrderStatus.Win;\n                        }\n                    } else { // if is Sell order\n                       if (order.outcome == OrderOutcome(outcome)) {\n                            //if game's outcome equals order outcome\n                            game.orders[i].status = OrderStatus.Lose;\n                            game.orders[order.matchedOrderId].status = OrderStatus.Win;\n                       }else{\n                           //if game's outcome does not equals order outcome\n                            game.orders[i].status = OrderStatus.Win;\n                            game.orders[order.matchedOrderId].status = OrderStatus.Lose;\n                       }\n                    }\n                    transferTokensByOrder(game.orders[i], game.orders[order.matchedOrderId], outcome);\n\n                    //send order events for update\n                    emitOrderEvent(game.orders[i]);\n                    emitOrderEvent(game.orders[order.matchedOrderId]);\n                }\n\n                if(order.status == OrderStatus.Open) {\n                    //unblock tokens\n                    unblockTokensByOrder(game.orders[i]);\n                    //update order status which is not matched as closed\n                    game.orders[i].status = OrderStatus.Closed;\n                    //send event on this order for update\n                    emitOrderEvent(game.orders[i]);\n                }\n            }\n        }\n        game.status = GameStatus(outcome);\n        emitGameEvent(game);\n    }\n\n    /**\n    * Get Game by id\n    */\n    function getGame(uint _gameId) public view\n        returns (uint, string, string, string, uint, uint, GameStatus, address, uint) {\n            Game memory game = games[_gameId];\n            return (game.id, game.homeTeam, game.awayTeam, game.category, game.startDate,\n                game.endDate, game.status, game.owner, game.totalOrders);\n        }\n    /**\n    * Get order by game id and order id\n    */\n    function getOrderById(uint _gameId, uint _orderId) public view\n        returns (uint, address, uint, OrderType, uint, uint, OrderOutcome, OrderStatus, uint) {\n            Order memory order = games[_gameId].orders[_orderId];\n            return (order.id, order.player, order.gameId, order.orderType, order.amount,\n                order.odd, order.outcome,\n                order.status, order.matchedOrderId);\n        }\n\n    /**\n    * Place order on the game\n    */\n    function placeOrder(uint _gameId, uint _orderType, uint _amount, uint _odd, uint _outcome, address _player)\n        public payable returns (uint) {\n            Game storage game = games[_gameId];\n            // require (now < game.startDate);\n\n            uint newId = game.totalOrders;\n            Order memory newOrder = Order(newId, _player, _gameId, OrderType(_orderType), _amount, _odd,\n                OrderOutcome(_outcome), OrderStatus.Open, NONE);\n\n            //check matched\n            newOrder = checkMatched(_gameId, newOrder);\n\n            blockTokensByOrderType(newOrder);\n\n            //save order\n            game.orders[newId] = newOrder;\n\n            //increase orders number\n            game.totalOrders += 1;\n\n            emitOrderEvent(newOrder);\n            return newOrder.id;\n        }\n\n    /**\n    * Give free tokens to signed users\n    */\n    function giveFreeTokens(uint _amount, address _toUser) public returns (bool) {\n        if(balanceOf[_toUser].owner != _toUser){\n          Wallet memory wallet = Wallet(0, 0, _toUser);\n          balanceOf[_toUser] = wallet;\n        }\n        transferTokens(msg.sender, _toUser, _amount);\n        return true;\n    }\n\n    /**\n    * Get balance\n    */\n    function getBalance() public view returns (uint, uint, address) {\n        Wallet memory wallet = balanceOf[msg.sender];\n        return (wallet.amount, wallet.blockAmount, wallet.owner);\n    }\n\n    /**\n    * Block tokens by order type\n    */\n    function blockTokensByOrderType(Order order) private {\n        if(order.orderType == OrderType.Buy){\n          //Block tokens for this orders when is Buy order\n          blockTokens(order.player, order.amount);\n        }else{\n          //Block tokens for this orders when is Sell order\n          uint amount = order.amount * order.odd / 100;\n          blockTokens(order.player, amount);\n        }\n    }\n\n    /**\n    * Unblock tokens by order type\n    *\n    * amount = 300\n    * odd = 140\n    * 300 00 140\n    * 4200000\n    */\n    function unblockTokensByOrder(Order order) private {\n        if(order.orderType == OrderType.Buy){\n          //Block tokens for this orders\n          unblockTokens(order.player, order.amount);\n        }else{\n          //Block tokens for this orders\n           uint amount = order.amount * order.odd / 100;\n          unblockTokens(order.player, amount);\n        }\n    }\n\n\n    /**\n    * Transfer tokens by order type\n    */\n    function transferTokensByOrder(Order order, Order matchedOrder, uint outcome) private {\n        uint amount;\n        address from;\n        address to;\n        if(order.orderType == OrderType.Buy){ // if is buy order\n            amount = order.amount * order.odd / 100 ;\n            if (order.outcome == OrderOutcome(outcome)) {\n                //if game's outcome equals order outcome\n                from = matchedOrder.player;\n                to = order.player;\n            }else{\n                //if game's outcome does not equals order outcome\n                from = order.player;\n                to = matchedOrder.player;\n            }\n        }else{ // if is Sell order\n          amount = order.amount;\n          if (order.outcome == OrderOutcome(outcome)) {\n              //if game's outcome equals order outcome\n              from = order.player;\n              to = matchedOrder.player;\n          }else{\n              //if game's outcome does not equals order outcome\n              from = matchedOrder.player;\n              to = order.player;\n          }\n        }\n        //transfer money\n        transferTokens(from, to, amount);\n    }\n\n    /**\n    * Check orders if matched change status as matched and block tokens\n    */\n    function checkMatched(uint _gameId, Order newOrder) private returns(Order){\n        Game storage game = games[_gameId];\n        for (uint i = 0; i < game.totalOrders; i++) {\n            Order storage order = game.orders[i];\n            // if orders matched\n            if (order.amount == newOrder.amount &&\n                order.orderType != newOrder.orderType &&\n                order.odd == newOrder.odd &&\n                order.outcome == newOrder.outcome &&\n                order.status == OrderStatus.Open) {\n\n                game.orders[i].status = OrderStatus.Matched;\n                game.orders[i].matchedOrderId = newOrder.id;\n                newOrder.matchedOrderId = order.id;\n                newOrder.status = OrderStatus.Matched;\n\n                emitOrderEvent(order);\n            }\n        }\n        return newOrder;\n    }\n\n    function emitOrderEvent(Order order) private {\n        emit OrderEvent (order.id, order.player, order.gameId,\n                    order.orderType, order.amount, order.odd, uint(order.outcome),\n                    uint(order.status), order.matchedOrderId);\n    }\n\n    function emitGameEvent(Game game) private {\n        emit GameEvent(game.id, game.homeTeam, game.awayTeam,\n            game.category, game.startDate, game.endDate, uint(game.status),\n            game.owner, game.totalOrders);\n    }\n}\n",
  "sourcePath": "/Users/giga/projects/bxbet-backend/contracts/BXBet.sol",
  "compiler": {
    "name": "solc",
    "version": "0.4.24+commit.e67f0147.Emscripten.clang"
  },
  "schemaVersion": "2.0.0",
  "updatedAt": "2018-07-12T12:36:21.039Z"
}